{
  "_format": "hh-sol-artifact-1",
  "contractName": "Tweedentity",
  "sourceName": "contracts/Tweedentity.sol",
  "abi": [
    {
      "inputs": [
        {
          "internalType": "address",
          "name": "_oracle",
          "type": "address"
        },
        {
          "internalType": "address",
          "name": "_donee",
          "type": "address"
        },
        {
          "internalType": "string",
          "name": "_uri",
          "type": "string"
        },
        {
          "internalType": "uint256",
          "name": "_chainProgressiveId",
          "type": "uint256"
        }
      ],
      "stateMutability": "nonpayable",
      "type": "constructor"
    },
    {
      "anonymous": false,
      "inputs": [
        {
          "indexed": true,
          "internalType": "uint256",
          "name": "id",
          "type": "uint256"
        },
        {
          "indexed": true,
          "internalType": "bytes32",
          "name": "nickname",
          "type": "bytes32"
        }
      ],
      "name": "AppAdded",
      "type": "event"
    },
    {
      "anonymous": false,
      "inputs": [
        {
          "indexed": true,
          "internalType": "address",
          "name": "account",
          "type": "address"
        },
        {
          "indexed": true,
          "internalType": "address",
          "name": "operator",
          "type": "address"
        },
        {
          "indexed": false,
          "internalType": "bool",
          "name": "approved",
          "type": "bool"
        }
      ],
      "name": "ApprovalForAll",
      "type": "event"
    },
    {
      "anonymous": false,
      "inputs": [
        {
          "indexed": true,
          "internalType": "uint256",
          "name": "_appId",
          "type": "uint256"
        },
        {
          "indexed": true,
          "internalType": "uint256",
          "name": "_id",
          "type": "uint256"
        },
        {
          "indexed": true,
          "internalType": "address",
          "name": "_claimer",
          "type": "address"
        }
      ],
      "name": "ClaimCanceled",
      "type": "event"
    },
    {
      "anonymous": false,
      "inputs": [
        {
          "indexed": true,
          "internalType": "uint256",
          "name": "_appId",
          "type": "uint256"
        },
        {
          "indexed": true,
          "internalType": "uint256",
          "name": "_id",
          "type": "uint256"
        },
        {
          "indexed": true,
          "internalType": "address",
          "name": "_claimer",
          "type": "address"
        }
      ],
      "name": "ClaimCompleted",
      "type": "event"
    },
    {
      "anonymous": false,
      "inputs": [
        {
          "indexed": true,
          "internalType": "uint256",
          "name": "_appId",
          "type": "uint256"
        },
        {
          "indexed": true,
          "internalType": "uint256",
          "name": "_id",
          "type": "uint256"
        },
        {
          "indexed": true,
          "internalType": "address",
          "name": "_claimer",
          "type": "address"
        }
      ],
      "name": "ClaimStarted",
      "type": "event"
    },
    {
      "anonymous": false,
      "inputs": [
        {
          "indexed": true,
          "internalType": "address",
          "name": "_donee",
          "type": "address"
        }
      ],
      "name": "DoneeUpdated",
      "type": "event"
    },
    {
      "anonymous": false,
      "inputs": [
        {
          "indexed": true,
          "internalType": "uint256",
          "name": "_appId",
          "type": "uint256"
        },
        {
          "indexed": true,
          "internalType": "uint256",
          "name": "_id",
          "type": "uint256"
        },
        {
          "indexed": true,
          "internalType": "address",
          "name": "_address",
          "type": "address"
        }
      ],
      "name": "IdentitySet",
      "type": "event"
    },
    {
      "anonymous": false,
      "inputs": [
        {
          "indexed": true,
          "internalType": "uint256",
          "name": "_appId",
          "type": "uint256"
        },
        {
          "indexed": true,
          "internalType": "uint256",
          "name": "_id",
          "type": "uint256"
        },
        {
          "indexed": true,
          "internalType": "address",
          "name": "_address",
          "type": "address"
        }
      ],
      "name": "IdentityUpdated",
      "type": "event"
    },
    {
      "anonymous": false,
      "inputs": [
        {
          "indexed": false,
          "internalType": "uint256",
          "name": "_maxSupply",
          "type": "uint256"
        }
      ],
      "name": "MaxSupplyUpdated",
      "type": "event"
    },
    {
      "anonymous": false,
      "inputs": [
        {
          "indexed": false,
          "internalType": "uint256",
          "name": "_maxTokensByMint",
          "type": "uint256"
        }
      ],
      "name": "MaxTokensByMintUpdated",
      "type": "event"
    },
    {
      "anonymous": false,
      "inputs": [
        {
          "indexed": false,
          "internalType": "uint256",
          "name": "_minTimeBetweenMintingEvents",
          "type": "uint256"
        }
      ],
      "name": "MinTimeBetweenMintingEventsUpdated",
      "type": "event"
    },
    {
      "anonymous": false,
      "inputs": [
        {
          "indexed": true,
          "internalType": "address",
          "name": "oracle",
          "type": "address"
        }
      ],
      "name": "OracleUpdated",
      "type": "event"
    },
    {
      "anonymous": false,
      "inputs": [
        {
          "indexed": true,
          "internalType": "address",
          "name": "previousOwner",
          "type": "address"
        },
        {
          "indexed": true,
          "internalType": "address",
          "name": "newOwner",
          "type": "address"
        }
      ],
      "name": "OwnershipTransferred",
      "type": "event"
    },
    {
      "anonymous": false,
      "inputs": [
        {
          "indexed": false,
          "internalType": "uint256",
          "name": "probationTime",
          "type": "uint256"
        },
        {
          "indexed": false,
          "internalType": "uint256",
          "name": "afterProbationTime",
          "type": "uint256"
        }
      ],
      "name": "ProbationTimesUpdated",
      "type": "event"
    },
    {
      "anonymous": false,
      "inputs": [
        {
          "indexed": false,
          "internalType": "uint256",
          "name": "_timestampValidFor",
          "type": "uint256"
        }
      ],
      "name": "TimestampValidForUpdated",
      "type": "event"
    },
    {
      "anonymous": false,
      "inputs": [
        {
          "indexed": true,
          "internalType": "address",
          "name": "operator",
          "type": "address"
        },
        {
          "indexed": true,
          "internalType": "address",
          "name": "from",
          "type": "address"
        },
        {
          "indexed": true,
          "internalType": "address",
          "name": "to",
          "type": "address"
        },
        {
          "indexed": false,
          "internalType": "uint256[]",
          "name": "ids",
          "type": "uint256[]"
        },
        {
          "indexed": false,
          "internalType": "uint256[]",
          "name": "values",
          "type": "uint256[]"
        }
      ],
      "name": "TransferBatch",
      "type": "event"
    },
    {
      "anonymous": false,
      "inputs": [
        {
          "indexed": true,
          "internalType": "address",
          "name": "operator",
          "type": "address"
        },
        {
          "indexed": true,
          "internalType": "address",
          "name": "from",
          "type": "address"
        },
        {
          "indexed": true,
          "internalType": "address",
          "name": "to",
          "type": "address"
        },
        {
          "indexed": false,
          "internalType": "uint256",
          "name": "id",
          "type": "uint256"
        },
        {
          "indexed": false,
          "internalType": "uint256",
          "name": "value",
          "type": "uint256"
        }
      ],
      "name": "TransferSingle",
      "type": "event"
    },
    {
      "anonymous": false,
      "inputs": [
        {
          "indexed": false,
          "internalType": "string",
          "name": "value",
          "type": "string"
        },
        {
          "indexed": true,
          "internalType": "uint256",
          "name": "id",
          "type": "uint256"
        }
      ],
      "name": "URI",
      "type": "event"
    },
    {
      "inputs": [],
      "name": "activeClaimsByOrAgainst",
      "outputs": [
        {
          "components": [
            {
              "internalType": "address",
              "name": "claimer",
              "type": "address"
            },
            {
              "internalType": "uint256",
              "name": "appId",
              "type": "uint256"
            },
            {
              "internalType": "uint256",
              "name": "id",
              "type": "uint256"
            },
            {
              "internalType": "uint256",
              "name": "when",
              "type": "uint256"
            }
          ],
          "internalType": "struct ClaimableIdentityStore.Claim[]",
          "name": "",
          "type": "tuple[]"
        }
      ],
      "stateMutability": "view",
      "type": "function"
    },
    {
      "inputs": [
        {
          "internalType": "bytes32",
          "name": "_appNickname",
          "type": "bytes32"
        },
        {
          "internalType": "bool",
          "name": "_pureNumber",
          "type": "bool"
        }
      ],
      "name": "addApp",
      "outputs": [],
      "stateMutability": "nonpayable",
      "type": "function"
    },
    {
      "inputs": [
        {
          "internalType": "uint256",
          "name": "",
          "type": "uint256"
        },
        {
          "internalType": "uint256",
          "name": "",
          "type": "uint256"
        }
      ],
      "name": "addressById",
      "outputs": [
        {
          "internalType": "address",
          "name": "",
          "type": "address"
        }
      ],
      "stateMutability": "view",
      "type": "function"
    },
    {
      "inputs": [],
      "name": "afterProbationTime",
      "outputs": [
        {
          "internalType": "uint256",
          "name": "",
          "type": "uint256"
        }
      ],
      "stateMutability": "view",
      "type": "function"
    },
    {
      "inputs": [
        {
          "internalType": "uint256",
          "name": "",
          "type": "uint256"
        }
      ],
      "name": "apps",
      "outputs": [
        {
          "internalType": "bytes32",
          "name": "nickname",
          "type": "bytes32"
        },
        {
          "internalType": "bool",
          "name": "hasPureNumberId",
          "type": "bool"
        }
      ],
      "stateMutability": "view",
      "type": "function"
    },
    {
      "inputs": [
        {
          "internalType": "address",
          "name": "account",
          "type": "address"
        },
        {
          "internalType": "uint256",
          "name": "id",
          "type": "uint256"
        }
      ],
      "name": "balanceOf",
      "outputs": [
        {
          "internalType": "uint256",
          "name": "",
          "type": "uint256"
        }
      ],
      "stateMutability": "view",
      "type": "function"
    },
    {
      "inputs": [
        {
          "internalType": "address[]",
          "name": "accounts",
          "type": "address[]"
        },
        {
          "internalType": "uint256[]",
          "name": "ids",
          "type": "uint256[]"
        }
      ],
      "name": "balanceOfBatch",
      "outputs": [
        {
          "internalType": "uint256[]",
          "name": "",
          "type": "uint256[]"
        }
      ],
      "stateMutability": "view",
      "type": "function"
    },
    {
      "inputs": [
        {
          "internalType": "uint256",
          "name": "_appId",
          "type": "uint256"
        },
        {
          "internalType": "uint256",
          "name": "_id",
          "type": "uint256"
        }
      ],
      "name": "cancelActiveClaim",
      "outputs": [],
      "stateMutability": "nonpayable",
      "type": "function"
    },
    {
      "inputs": [],
      "name": "chainProgressiveId",
      "outputs": [
        {
          "internalType": "uint256",
          "name": "",
          "type": "uint256"
        }
      ],
      "stateMutability": "view",
      "type": "function"
    },
    {
      "inputs": [
        {
          "internalType": "uint256",
          "name": "",
          "type": "uint256"
        },
        {
          "internalType": "address",
          "name": "",
          "type": "address"
        }
      ],
      "name": "claimByAddress",
      "outputs": [
        {
          "internalType": "uint256",
          "name": "",
          "type": "uint256"
        }
      ],
      "stateMutability": "view",
      "type": "function"
    },
    {
      "inputs": [
        {
          "internalType": "uint256",
          "name": "_appId",
          "type": "uint256"
        },
        {
          "internalType": "uint256",
          "name": "_id",
          "type": "uint256"
        },
        {
          "internalType": "uint256",
          "name": "_timestamp",
          "type": "uint256"
        },
        {
          "internalType": "bytes",
          "name": "_signature",
          "type": "bytes"
        }
      ],
      "name": "claimIdentity",
      "outputs": [],
      "stateMutability": "nonpayable",
      "type": "function"
    },
    {
      "inputs": [
        {
          "internalType": "uint256",
          "name": "",
          "type": "uint256"
        },
        {
          "internalType": "uint256",
          "name": "",
          "type": "uint256"
        }
      ],
      "name": "claimerById",
      "outputs": [
        {
          "internalType": "address",
          "name": "claimer",
          "type": "address"
        },
        {
          "internalType": "uint256",
          "name": "when",
          "type": "uint256"
        }
      ],
      "stateMutability": "view",
      "type": "function"
    },
    {
      "inputs": [],
      "name": "donee",
      "outputs": [
        {
          "internalType": "address",
          "name": "",
          "type": "address"
        }
      ],
      "stateMutability": "view",
      "type": "function"
    },
    {
      "inputs": [],
      "name": "getChainId",
      "outputs": [
        {
          "internalType": "uint256",
          "name": "",
          "type": "uint256"
        }
      ],
      "stateMutability": "view",
      "type": "function"
    },
    {
      "inputs": [
        {
          "internalType": "uint256",
          "name": "",
          "type": "uint256"
        },
        {
          "internalType": "address",
          "name": "",
          "type": "address"
        }
      ],
      "name": "idByAddress",
      "outputs": [
        {
          "internalType": "uint256",
          "name": "",
          "type": "uint256"
        }
      ],
      "stateMutability": "view",
      "type": "function"
    },
    {
      "inputs": [
        {
          "internalType": "address",
          "name": "account",
          "type": "address"
        },
        {
          "internalType": "address",
          "name": "operator",
          "type": "address"
        }
      ],
      "name": "isApprovedForAll",
      "outputs": [
        {
          "internalType": "bool",
          "name": "",
          "type": "bool"
        }
      ],
      "stateMutability": "view",
      "type": "function"
    },
    {
      "inputs": [],
      "name": "maxMintingEvents",
      "outputs": [
        {
          "internalType": "uint256",
          "name": "",
          "type": "uint256"
        }
      ],
      "stateMutability": "view",
      "type": "function"
    },
    {
      "inputs": [],
      "name": "maxNumberOfApps",
      "outputs": [
        {
          "internalType": "uint256",
          "name": "",
          "type": "uint256"
        }
      ],
      "stateMutability": "view",
      "type": "function"
    },
    {
      "inputs": [],
      "name": "maxNumberOfChains",
      "outputs": [
        {
          "internalType": "uint256",
          "name": "",
          "type": "uint256"
        }
      ],
      "stateMutability": "view",
      "type": "function"
    },
    {
      "inputs": [],
      "name": "maxSupply",
      "outputs": [
        {
          "internalType": "uint256",
          "name": "",
          "type": "uint256"
        }
      ],
      "stateMutability": "view",
      "type": "function"
    },
    {
      "inputs": [],
      "name": "maxTokensByMint",
      "outputs": [
        {
          "internalType": "uint256",
          "name": "",
          "type": "uint256"
        }
      ],
      "stateMutability": "view",
      "type": "function"
    },
    {
      "inputs": [],
      "name": "minTimeBetweenMintingEvents",
      "outputs": [
        {
          "internalType": "uint256",
          "name": "",
          "type": "uint256"
        }
      ],
      "stateMutability": "view",
      "type": "function"
    },
    {
      "inputs": [
        {
          "internalType": "uint256",
          "name": "_appId",
          "type": "uint256"
        },
        {
          "internalType": "uint256[]",
          "name": "_tokenIds",
          "type": "uint256[]"
        },
        {
          "internalType": "uint256[]",
          "name": "_supplies",
          "type": "uint256[]"
        },
        {
          "internalType": "uint256[]",
          "name": "_donations",
          "type": "uint256[]"
        },
        {
          "internalType": "address[]",
          "name": "_donees",
          "type": "address[]"
        },
        {
          "internalType": "uint256[]",
          "name": "_temp",
          "type": "uint256[]"
        },
        {
          "internalType": "uint256",
          "name": "_timestamp",
          "type": "uint256"
        },
        {
          "internalType": "bytes",
          "name": "_signature",
          "type": "bytes"
        }
      ],
      "name": "mintBatchToken",
      "outputs": [],
      "stateMutability": "nonpayable",
      "type": "function"
    },
    {
      "inputs": [
        {
          "internalType": "uint256",
          "name": "_appId",
          "type": "uint256"
        },
        {
          "internalType": "uint256",
          "name": "_tokenId",
          "type": "uint256"
        },
        {
          "internalType": "uint256",
          "name": "_supply",
          "type": "uint256"
        },
        {
          "internalType": "uint256[]",
          "name": "_donations",
          "type": "uint256[]"
        },
        {
          "internalType": "address[]",
          "name": "_donees",
          "type": "address[]"
        },
        {
          "internalType": "uint256",
          "name": "_timestamp",
          "type": "uint256"
        },
        {
          "internalType": "bytes",
          "name": "_signature",
          "type": "bytes"
        }
      ],
      "name": "mintToken",
      "outputs": [],
      "stateMutability": "nonpayable",
      "type": "function"
    },
    {
      "inputs": [
        {
          "internalType": "uint256",
          "name": "",
          "type": "uint256"
        }
      ],
      "name": "nextMintedById",
      "outputs": [
        {
          "internalType": "uint256",
          "name": "id",
          "type": "uint256"
        },
        {
          "internalType": "uint256",
          "name": "timestamp",
          "type": "uint256"
        }
      ],
      "stateMutability": "view",
      "type": "function"
    },
    {
      "inputs": [
        {
          "internalType": "uint256",
          "name": "_appId",
          "type": "uint256"
        },
        {
          "internalType": "uint256",
          "name": "_id",
          "type": "uint256"
        }
      ],
      "name": "nextTokenId",
      "outputs": [
        {
          "internalType": "uint256",
          "name": "",
          "type": "uint256"
        }
      ],
      "stateMutability": "view",
      "type": "function"
    },
    {
      "inputs": [],
      "name": "oracle",
      "outputs": [
        {
          "internalType": "address",
          "name": "",
          "type": "address"
        }
      ],
      "stateMutability": "view",
      "type": "function"
    },
    {
      "inputs": [],
      "name": "owner",
      "outputs": [
        {
          "internalType": "address",
          "name": "",
          "type": "address"
        }
      ],
      "stateMutability": "view",
      "type": "function"
    },
    {
      "inputs": [],
      "name": "probationTime",
      "outputs": [
        {
          "internalType": "uint256",
          "name": "",
          "type": "uint256"
        }
      ],
      "stateMutability": "view",
      "type": "function"
    },
    {
      "inputs": [],
      "name": "renounceOwnership",
      "outputs": [],
      "stateMutability": "nonpayable",
      "type": "function"
    },
    {
      "inputs": [
        {
          "internalType": "address",
          "name": "from",
          "type": "address"
        },
        {
          "internalType": "address",
          "name": "to",
          "type": "address"
        },
        {
          "internalType": "uint256[]",
          "name": "ids",
          "type": "uint256[]"
        },
        {
          "internalType": "uint256[]",
          "name": "amounts",
          "type": "uint256[]"
        },
        {
          "internalType": "bytes",
          "name": "data",
          "type": "bytes"
        }
      ],
      "name": "safeBatchTransferFrom",
      "outputs": [],
      "stateMutability": "nonpayable",
      "type": "function"
    },
    {
      "inputs": [
        {
          "internalType": "address",
          "name": "from",
          "type": "address"
        },
        {
          "internalType": "address",
          "name": "to",
          "type": "address"
        },
        {
          "internalType": "uint256",
          "name": "id",
          "type": "uint256"
        },
        {
          "internalType": "uint256",
          "name": "amount",
          "type": "uint256"
        },
        {
          "internalType": "bytes",
          "name": "data",
          "type": "bytes"
        }
      ],
      "name": "safeTransferFrom",
      "outputs": [],
      "stateMutability": "nonpayable",
      "type": "function"
    },
    {
      "inputs": [
        {
          "internalType": "address",
          "name": "operator",
          "type": "address"
        },
        {
          "internalType": "bool",
          "name": "approved",
          "type": "bool"
        }
      ],
      "name": "setApprovalForAll",
      "outputs": [],
      "stateMutability": "nonpayable",
      "type": "function"
    },
    {
      "inputs": [
        {
          "internalType": "uint256",
          "name": "_appId",
          "type": "uint256"
        },
        {
          "internalType": "uint256",
          "name": "_id",
          "type": "uint256"
        },
        {
          "internalType": "uint256",
          "name": "_timestamp",
          "type": "uint256"
        },
        {
          "internalType": "bytes",
          "name": "_signature",
          "type": "bytes"
        }
      ],
      "name": "setIdentity",
      "outputs": [],
      "stateMutability": "nonpayable",
      "type": "function"
    },
    {
      "inputs": [
        {
          "internalType": "bytes4",
          "name": "interfaceId",
          "type": "bytes4"
        }
      ],
      "name": "supportsInterface",
      "outputs": [
        {
          "internalType": "bool",
          "name": "",
          "type": "bool"
        }
      ],
      "stateMutability": "view",
      "type": "function"
    },
    {
      "inputs": [],
      "name": "timestampValidFor",
      "outputs": [
        {
          "internalType": "uint256",
          "name": "",
          "type": "uint256"
        }
      ],
      "stateMutability": "view",
      "type": "function"
    },
    {
      "inputs": [
        {
          "internalType": "uint256",
          "name": "",
          "type": "uint256"
        }
      ],
      "name": "totalIdentities",
      "outputs": [
        {
          "internalType": "uint256",
          "name": "",
          "type": "uint256"
        }
      ],
      "stateMutability": "view",
      "type": "function"
    },
    {
      "inputs": [
        {
          "internalType": "address",
          "name": "newOwner",
          "type": "address"
        }
      ],
      "name": "transferOwnership",
      "outputs": [],
      "stateMutability": "nonpayable",
      "type": "function"
    },
    {
      "inputs": [
        {
          "internalType": "uint256",
          "name": "_appId",
          "type": "uint256"
        },
        {
          "internalType": "uint256",
          "name": "_id",
          "type": "uint256"
        },
        {
          "internalType": "uint256",
          "name": "_timestamp",
          "type": "uint256"
        },
        {
          "internalType": "bytes",
          "name": "_signature",
          "type": "bytes"
        }
      ],
      "name": "updateClaimedIdentity",
      "outputs": [],
      "stateMutability": "nonpayable",
      "type": "function"
    },
    {
      "inputs": [
        {
          "internalType": "address",
          "name": "_donee",
          "type": "address"
        }
      ],
      "name": "updateDonee",
      "outputs": [],
      "stateMutability": "nonpayable",
      "type": "function"
    },
    {
      "inputs": [
        {
          "internalType": "uint256",
          "name": "_appId",
          "type": "uint256"
        },
        {
          "internalType": "address",
          "name": "_newAddress",
          "type": "address"
        }
      ],
      "name": "updateIdentity",
      "outputs": [],
      "stateMutability": "nonpayable",
      "type": "function"
    },
    {
      "inputs": [
        {
          "internalType": "uint256",
          "name": "_maxSupply",
          "type": "uint256"
        }
      ],
      "name": "updateMaxSupply",
      "outputs": [],
      "stateMutability": "nonpayable",
      "type": "function"
    },
    {
      "inputs": [
        {
          "internalType": "uint256",
          "name": "_maxTokensByMint",
          "type": "uint256"
        }
      ],
      "name": "updateMaxTokensByMint",
      "outputs": [],
      "stateMutability": "nonpayable",
      "type": "function"
    },
    {
      "inputs": [
        {
          "internalType": "uint256",
          "name": "_minTimeBetweenMintingEvents",
          "type": "uint256"
        }
      ],
      "name": "updateMinTimeBetweenMintingEvents",
      "outputs": [],
      "stateMutability": "nonpayable",
      "type": "function"
    },
    {
      "inputs": [
        {
          "internalType": "address",
          "name": "_oracle",
          "type": "address"
        }
      ],
      "name": "updateOracle",
      "outputs": [],
      "stateMutability": "nonpayable",
      "type": "function"
    },
    {
      "inputs": [
        {
          "internalType": "uint256",
          "name": "_probationTime",
          "type": "uint256"
        },
        {
          "internalType": "uint256",
          "name": "_afterProbationTime",
          "type": "uint256"
        }
      ],
      "name": "updateProbationTimes",
      "outputs": [],
      "stateMutability": "nonpayable",
      "type": "function"
    },
    {
      "inputs": [
        {
          "internalType": "uint256",
          "name": "_timestampValidFor",
          "type": "uint256"
        }
      ],
      "name": "updateTimestampValidFor",
      "outputs": [],
      "stateMutability": "nonpayable",
      "type": "function"
    },
    {
      "inputs": [
        {
          "internalType": "uint256",
          "name": "",
          "type": "uint256"
        }
      ],
      "name": "uri",
      "outputs": [
        {
          "internalType": "string",
          "name": "",
          "type": "string"
        }
      ],
      "stateMutability": "view",
      "type": "function"
    }
  ],
  "bytecode": "0x608060405262093a8060095562093a80600a5562015180600e556103e860115562015180601255600a6013553480156200003857600080fd5b5060405162004973380380620049738339810160408190526200005b9162000388565b8382620000688162000158565b5060006200007562000171565b600380546001600160a01b0319166001600160a01b038316908117909155604051919250906000907f8be0079c531659141344cd1fd0a4f28419497f9722a3daafe3b4186f6b6457e0908290a350620000da663a3bb4ba3a32b960c91b600162000175565b620000f0651c9959191a5d60d21b600062000175565b600d80546001600160a01b03199081166001600160a01b0393841617909155600f8054909116918516919091179055606481106200014b5760405162461bcd60e51b8152600401620001429062000485565b60405180910390fd5b60105550620005fb915050565b80516200016d906002906020840190620002c5565b5050565b3390565b6200017f62000171565b6001600160a01b031662000192620002a1565b6001600160a01b031614620001bb5760405162461bcd60e51b8152600401620001429062000525565b81620001db5760405162461bcd60e51b81526004016200014290620004c6565b620001f760016064620002b060201b62001d3d1790919060201c565b600454106200021a5760405162461bcd60e51b81526004016200014290620004ee565b600480549060006200022c83620005b1565b9091555050604080518082018252838152821515602080830191825260048054600090815260059092528482209351845591516001909301805460ff1916931515939093179092555491518492917f28d967bcded44bffdc325b75e12506eb1ce8a880b0d411e891d3a6a9ce65076291a35050565b6003546001600160a01b031690565b6000620002be82846200055a565b9392505050565b828054620002d39062000574565b90600052602060002090601f016020900481019282620002f7576000855562000342565b82601f106200031257805160ff191683800117855562000342565b8280016001018555821562000342579182015b828111156200034257825182559160200191906001019062000325565b506200035092915062000354565b5090565b5b8082111562000350576000815560010162000355565b80516001600160a01b03811681146200038357600080fd5b919050565b600080600080608085870312156200039e578384fd5b620003a9856200036b565b93506020620003ba8187016200036b565b60408701519094506001600160401b0380821115620003d7578485fd5b818801915088601f830112620003eb578485fd5b815181811115620004005762000400620005e5565b604051601f8201601f1916810185018381118282101715620004265762000426620005e5565b60405281815283820185018b10156200043d578687fd5b8692505b8183101562000460578383018501518184018601529184019162000441565b818311156200047157868583830101525b60609990990151979a969950505050505050565b60208082526021908201527f5f636861696e50726f67726573736976654964206d757374206265203c2031306040820152600360fc1b606082015260800190565b6020808252600e908201526d456d707479206e69636b6e616d6560901b604082015260600190565b60208082526014908201527f4e65772061707073206e6f7420616c6c6f776564000000000000000000000000604082015260600190565b6020808252818101527f4f776e61626c653a2063616c6c6572206973206e6f7420746865206f776e6572604082015260600190565b6000828210156200056f576200056f620005cf565b500390565b6002810460018216806200058957607f821691505b60208210811415620005ab57634e487b7160e01b600052602260045260246000fd5b50919050565b6000600019821415620005c857620005c8620005cf565b5060010190565b634e487b7160e01b600052601160045260246000fd5b634e487b7160e01b600052604160045260246000fd5b614368806200060b6000396000f3fe608060405234801561001057600080fd5b506004361061029f5760003560e01c80637dc0d1d011610167578063ac860c41116100ce578063ecf215f511610087578063ecf215f514610500578063ee026c43146105a0578063f103b433146105b3578063f242432a146105c6578063f2fde38b146105d9578063f97ad191146105ec5761029f565b8063ac860c4114610536578063c0f4dee714610549578063d5abeb011461056a578063e528547714610572578063e985e9c51461057a578063ea533bd61461058d5761029f565b80638fbb0c38116101205780638fbb0c38146104e35780639052b8cd146104eb57806398936810146105005780639dfc795e14610508578063a22cb46514610510578063a9823e57146105235761029f565b80637dc0d1d0146104925780637fa710691461049a5780638ba1305b146104ad5780638d1a958a146104b55780638d88b91e146104c85780638da5cb5b146104db5761029f565b806336538b601161020b57806361acc37e116101c457806361acc37e146104335780636375c63c1461045457806366c8145d146104675780636e205a901461046f578063715018a6146104825780637ac520191461048a5761029f565b806336538b60146103a4578063388a41e5146103b75780633b6050f5146103ca5780634e1273f4146103dd5780634e698f57146103fd57806354f0c8971461041e5761029f565b80630e89341c1161025d5780630e89341c1461033057806315bf71ce146103505780631a5ad12c146103635780631cb44dfc146103765780632eb2c2d6146103895780633408e4701461039c5761029f565b8062fdd58e146102a457806301ffc9a7146102cd578063088ecbab146102ed5780630c5b210b146102f55780630c7a652f146103085780630d5b19361461031b575b600080fd5b6102b76102b236600461302e565b6105ff565b6040516102c49190614090565b60405180910390f35b6102e06102db3660046130da565b610656565b6040516102c4919061356d565b6102b761069e565b6102b761030336600461312a565b6106a4565b6102b761031636600461312a565b6106c1565b61032e61032936600461312a565b6106de565b005b61034361033e366004613112565b6106ed565b6040516102c491906135a6565b61032e61035e36600461324f565b610781565b61032e610371366004613112565b61081e565b61032e610384366004612eb0565b61089d565b61032e610397366004612efc565b610926565b6102b7610b8c565b61032e6103b236600461314c565b610b91565b6102b76103c5366004613112565b610e95565b6102b76103d836600461324f565b610ea7565b6103f06103eb366004613057565b610f29565b6040516102c49190613535565b61041061040b366004613112565b611049565b6040516102c4929190614104565b610426611062565b6040516102c491906133f8565b610446610441366004613112565b611071565b6040516102c4929190613578565b61032e61046236600461331b565b61108d565b6102b7611130565b61032e61047d3660046130b8565b611136565b61032e611243565b6102b76112cc565b6104266112d2565b61032e6104a8366004613270565b6112e1565b6102b76114bc565b61032e6104c3366004613112565b6114c2565b61032e6104d636600461331b565b611536565b6104266115b7565b6102b76115c6565b6104f36115cc565b6040516102c491906134c8565b6102b7611704565b6102b7611709565b61032e61051e366004613005565b61170f565b61032e610531366004612eb0565b6117dd565b61032e61054436600461331b565b611866565b61055c61055736600461324f565b6118e7565b6040516102c49291906134af565b6102b7611917565b6102b761191d565b6102e0610588366004612eca565b611923565b61032e61059b366004613112565b611951565b6104266105ae36600461324f565b6119c5565b61032e6105c1366004613112565b6119eb565b61032e6105d4366004612fa2565b611a5f565b61032e6105e7366004612eb0565b611bf5565b61032e6105fa36600461324f565b611cb6565b60006001600160a01b0383166106305760405162461bcd60e51b8152600401610627906136fa565b60405180910390fd5b506000908152602081815260408083206001600160a01b03949094168352929052205490565b60006001600160e01b03198216636cdb3d1360e11b148061068757506001600160e01b031982166303a24d0760e21b145b80610696575061069682611d50565b90505b919050565b6103e881565b600760209081526000928352604080842090915290825290205481565b600c60209081526000928352604080842090915290825290205481565b6106e9823383611d69565b5050565b6060600280546106fc906141c2565b80601f0160208091040260200160405190810160405280929190818152602001828054610728906141c2565b80156107755780601f1061074a57610100808354040283529160200191610775565b820191906000526020600020905b81548152906001019060200180831161075857829003601f168201915b50505050509050919050565b6000828152600b602090815260408083208484529091529020546001600160a01b031633146107c25760405162461bcd60e51b815260040161062790613de2565b6000828152600b6020908152604080832084845290915280822080546001600160a01b0319168155600101829055513391839185917fbf4accc6449e5bae2fa03b3e104f3ed5cd50e566305d1284293c2462fa63671591a45050565b610826611e9f565b6001600160a01b03166108376115b7565b6001600160a01b03161461085d5760405162461bcd60e51b815260040161062790613c86565b600e8190556040517fc2addcc2f3881d68b686098647f210bf0daf51d13bb27d60081ae6cdb81867a790610892908390614090565b60405180910390a150565b6108a5611e9f565b6001600160a01b03166108b66115b7565b6001600160a01b0316146108dc5760405162461bcd60e51b815260040161062790613c86565b600d80546001600160a01b0319166001600160a01b0383169081179091556040517f3df77beb5db05fcdd70a30fc8adf3f83f9501b68579455adbd100b818094039490600090a250565b81518351146109475760405162461bcd60e51b815260040161062790613f61565b6001600160a01b03841661096d5760405162461bcd60e51b815260040161062790613971565b610975611e9f565b6001600160a01b0316856001600160a01b0316148061099b575061099b85610588611e9f565b6109b75760405162461bcd60e51b8152600401610627906139b6565b60006109c1611e9f565b90506109d1818787878787610b84565b60005b8451811015610b1e5760008582815181106109ff57634e487b7160e01b600052603260045260246000fd5b602002602001015190506000858381518110610a2b57634e487b7160e01b600052603260045260246000fd5b602090810291909101810151600084815280835260408082206001600160a01b038e168352909352919091205490915081811015610a7b5760405162461bcd60e51b815260040161062790613b6e565b610a8582826141ab565b60008085815260200190815260200160002060008c6001600160a01b03166001600160a01b03168152602001908152602001600020819055508160008085815260200190815260200160002060008b6001600160a01b03166001600160a01b031681526020019081526020016000206000828254610b039190614160565b9250508190555050505080610b17906141fd565b90506109d4565b50846001600160a01b0316866001600160a01b0316826001600160a01b03167f4a39dc06d4c0dbc64b70af90fd698a233a518aa5d07e595d983b8c0526c8f7fb8787604051610b6e929190613548565b60405180910390a4610b84818787878787611ea3565b505050505050565b465b90565b87878383428210610bb45760405162461bcd60e51b815260040161062790613888565b600e54610bc2904290611d3d565b8211610be05760405162461bcd60e51b815260040161062790613c5b565b610c1f610beb610b8c565b33868686604051602001610c03959493929190614099565b6040516020818303038152906040528051906020012082611fb1565b610c3b5760405162461bcd60e51b8152600401610627906138b3565b60008c815260076020908152604080832033845290915290205480610c725760405162461bcd60e51b815260040161062790613db6565b6013548c511115610c955760405162461bcd60e51b815260040161062790613bb8565b8a518c51148015610ca7575089518c51145b610cc35760405162461bcd60e51b815260040161062790613a81565b60005b8c51811015610db75760008c8281518110610cf157634e487b7160e01b600052603260045260246000fd5b6020026020010151118015610d2f57506011548c8281518110610d2457634e487b7160e01b600052603260045260246000fd5b602002602001015111155b610d4b5760405162461bcd60e51b815260040161062790613d8c565b80610d568f84610ea7565b610d609190614160565b8d8281518110610d8057634e487b7160e01b600052603260045260246000fd5b602002602001015114610da55760405162461bcd60e51b815260040161062790613ce4565b80610daf816141fd565b915050610cc6565b506000818152601460205260409020600101541580610df35750601254610ddf904290611d3d565b600082815260146020526040902060010154115b610e0f5760405162461bcd60e51b815260040161062790614012565b6040805180820182528d5160008481526014602052929092205490918291610e379190614160565b815242602091820152600083815260148252604080822084518155938301516001909401939093558251918201909252908152610e799033908e908e90611fd5565b610e868c8c8c8c8c61215d565b50505050505050505050505050565b60086020526000908152604090205481565b6000818152601460205260408120548190610ec46103e88661418c565b6103e86064601054610ed6919061418c565b610ee0919061418c565b6103e86064610eef818961418c565b610ef9919061418c565b610f03919061418c565b610f0d9190614160565b610f179190614160565b610f219190614160565b949350505050565b60608151835114610f4c5760405162461bcd60e51b815260040161062790613f18565b6000835167ffffffffffffffff811115610f7657634e487b7160e01b600052604160045260246000fd5b604051908082528060200260200182016040528015610f9f578160200160208202803683370190505b50905060005b845181101561104157611006858281518110610fd157634e487b7160e01b600052603260045260246000fd5b6020026020010151858381518110610ff957634e487b7160e01b600052603260045260246000fd5b60200260200101516105ff565b82828151811061102657634e487b7160e01b600052603260045260246000fd5b602090810291909101015261103a816141fd565b9050610fa5565b509392505050565b6014602052600090815260409020805460019091015482565b600f546001600160a01b031681565b6005602052600090815260409020805460019091015460ff1682565b838383834282106110b05760405162461bcd60e51b815260040161062790613888565b600e546110be904290611d3d565b82116110dc5760405162461bcd60e51b815260040161062790613c5b565b6110ff6110e7610b8c565b33868686604051602001610c039594939291906140d8565b61111b5760405162461bcd60e51b8152600401610627906138b3565b611126883389612297565b5050505050505050565b600e5481565b61113e611e9f565b6001600160a01b031661114f6115b7565b6001600160a01b0316146111755760405162461bcd60e51b815260040161062790613c86565b816111925760405162461bcd60e51b815260040161062790613949565b61119e60646001611d3d565b600454106111be5760405162461bcd60e51b815260040161062790613a08565b600480549060006111ce836141fd565b9091555050604080518082018252838152821515602080830191825260048054600090815260059092528482209351845591516001909301805460ff1916931515939093179092555491518492917f28d967bcded44bffdc325b75e12506eb1ce8a880b0d411e891d3a6a9ce65076291a35050565b61124b611e9f565b6001600160a01b031661125c6115b7565b6001600160a01b0316146112825760405162461bcd60e51b815260040161062790613c86565b6003546040516000916001600160a01b0316907f8be0079c531659141344cd1fd0a4f28419497f9722a3daafe3b4186f6b6457e0908390a3600380546001600160a01b0319169055565b60135481565b600d546001600160a01b031681565b868683834282106113045760405162461bcd60e51b815260040161062790613888565b600e54611312904290611d3d565b82116113305760405162461bcd60e51b815260040161062790613c5b565b61133b6110e7610b8c565b6113575760405162461bcd60e51b8152600401610627906138b3565b60008b81526007602090815260408083203384529091529020548061138e5760405162461bcd60e51b815260040161062790613db6565b6113988c82610ea7565b8b146113b65760405162461bcd60e51b815260040161062790613ce4565b60008a1180156113c857506011548a11155b6113e45760405162461bcd60e51b815260040161062790613fa9565b600081815260146020526040902060010154158061141f575060125461140b904290611d3d565b600082815260146020526040902060010154115b61143b5760405162461bcd60e51b815260040161062790614012565b6040805180820182526000838152601460205291909120548190611460906001614160565b8152426020918201526000838152601482526040808220845181559383015160019094019390935582519182019092529081526114a29033908d908d9061240a565b6114ae8b8b8b8b6124ea565b505050505050505050505050565b60105481565b6114ca611e9f565b6001600160a01b03166114db6115b7565b6001600160a01b0316146115015760405162461bcd60e51b815260040161062790613c86565b60128190556040517f3104d73c1c61dbcdaba3e4414358b926c2a6bd25c077f16eb7ac4422732f713190610892908390614090565b838383834282106115595760405162461bcd60e51b815260040161062790613888565b600e54611567904290611d3d565b82116115855760405162461bcd60e51b815260040161062790613c5b565b6115906110e7610b8c565b6115ac5760405162461bcd60e51b8152600401610627906138b3565b6111268888336126cc565b6003546001600160a01b031690565b600a5481565b606080600060015b60045481116116fc5760008181526007602090815260408083203384529091529020548061161857506000818152600c602090815260408083203384529091529020545b80156116e95761163f611638600a5460095461287590919063ffffffff16565b4290611d3d565b6000838152600b6020908152604080832085845290915290206001015411156116e957604080516080810182526000848152600b602090815283822085835280825284832080546001600160a01b031685528285018890529484018690529185905252600190910154606082015284518590859081106116cf57634e487b7160e01b600052603260045260246000fd5b602002602001018190525082806116e5906141fd565b9350505b50806116f4816141fd565b9150506115d4565b509091505090565b606481565b60095481565b816001600160a01b0316611721611e9f565b6001600160a01b031614156117485760405162461bcd60e51b815260040161062790613ecf565b8060016000611755611e9f565b6001600160a01b03908116825260208083019390935260409182016000908120918716808252919093529120805460ff191692151592909217909155611799611e9f565b6001600160a01b03167f17307eab39ab6107e8899845ad3d59bd9653f200f220920489ca2b5937696c31836040516117d1919061356d565b60405180910390a35050565b6117e5611e9f565b6001600160a01b03166117f66115b7565b6001600160a01b03161461181c5760405162461bcd60e51b815260040161062790613c86565b600f80546001600160a01b0319166001600160a01b0383169081179091556040517f6e7ec25e0f98e0a0b129bb8a531c231a8c714decf29d1c05f1f0dff17197017390600090a250565b838383834282106118895760405162461bcd60e51b815260040161062790613888565b600e54611897904290611d3d565b82116118b55760405162461bcd60e51b815260040161062790613c5b565b6118c06110e7610b8c565b6118dc5760405162461bcd60e51b8152600401610627906138b3565b611126888833612881565b600b602090815260009283526040808420909152908252902080546001909101546001600160a01b039091169082565b60115481565b60125481565b6001600160a01b03918216600090815260016020908152604080832093909416825291909152205460ff1690565b611959611e9f565b6001600160a01b031661196a6115b7565b6001600160a01b0316146119905760405162461bcd60e51b815260040161062790613c86565b60138190556040517f1971d7e30b62960a7eb7ceeca19dabebb0e376b0cb4f3cc69de44a729888b5b490610892908390614090565b60066020908152600092835260408084209091529082529020546001600160a01b031681565b6119f3611e9f565b6001600160a01b0316611a046115b7565b6001600160a01b031614611a2a5760405162461bcd60e51b815260040161062790613c86565b60118190556040517f7810bd47de260c3e9ee10061cf438099dd12256c79485f12f94dbccc981e806c90610892908390614090565b6001600160a01b038416611a855760405162461bcd60e51b815260040161062790613971565b611a8d611e9f565b6001600160a01b0316856001600160a01b03161480611ab35750611ab385610588611e9f565b611acf5760405162461bcd60e51b8152600401610627906137c2565b6000611ad9611e9f565b9050611af9818787611aea886129d4565b611af3886129d4565b87610b84565b6000848152602081815260408083206001600160a01b038a16845290915290205483811015611b3a5760405162461bcd60e51b815260040161062790613b6e565b611b4484826141ab565b6000868152602081815260408083206001600160a01b038c81168552925280832093909355881681529081208054869290611b80908490614160565b92505081905550856001600160a01b0316876001600160a01b0316836001600160a01b03167fc3d58168c5ae7397731d063d5bbf3d657854427343f4c083240f7aacaa2d0f628888604051611bd6929190614104565b60405180910390a4611bec828888888888612a2d565b50505050505050565b611bfd611e9f565b6001600160a01b0316611c0e6115b7565b6001600160a01b031614611c345760405162461bcd60e51b815260040161062790613c86565b6001600160a01b038116611c5a5760405162461bcd60e51b815260040161062790613745565b6003546040516001600160a01b038084169216907f8be0079c531659141344cd1fd0a4f28419497f9722a3daafe3b4186f6b6457e090600090a3600380546001600160a01b0319166001600160a01b0392909216919091179055565b611cbe611e9f565b6001600160a01b0316611ccf6115b7565b6001600160a01b031614611cf55760405162461bcd60e51b815260040161062790613c86565b6009829055600a8190556040517f569c6845f77c381d82421be58b750f92e26a69c0e2fb41e56443bfc2dc7da72b90611d319084908490614104565b60405180910390a15050565b6000611d4982846141ab565b9392505050565b6001600160e01b031981166301ffc9a760e01b14919050565b6001600160a01b038116611d8f5760405162461bcd60e51b81526004016106279061378b565b60008381526007602090815260408083206001600160a01b0386168452909152902054611dce5760405162461bcd60e51b815260040161062790613e50565b60008381526007602090815260408083206001600160a01b038516845290915290205415611e0e5760405162461bcd60e51b815260040161062790613d0e565b60008381526007602090815260408083206001600160a01b0386811680865282855283862080549288168088528588208490558a885260068752858820848952875285882080546001600160a01b03191682179055918752929094529084905590519092839187917f32af34f37eedd419ea918341a1bb2638b9d1894cc795c523b93811ccaa6629a791a450505050565b3390565b611eb5846001600160a01b0316612afe565b15610b845760405163bc197c8160e01b81526001600160a01b0385169063bc197c8190611eee908990899088908890889060040161340c565b602060405180830381600087803b158015611f0857600080fd5b505af1925050508015611f38575060408051601f3d908101601f19168201909252611f35918101906130f6565b60015b611f8157611f44614274565b80611f4f5750611f69565b8060405162461bcd60e51b815260040161062791906135a6565b60405162461bcd60e51b8152600401610627906135f0565b6001600160e01b0319811663bc197c8160e01b14611bec5760405162461bcd60e51b815260040161062790613644565b6000611fbd8383612b04565b600d546001600160a01b039182169116149392505050565b6001600160a01b038416611ffb5760405162461bcd60e51b815260040161062790613fd1565b815183511461201c5760405162461bcd60e51b815260040161062790613f61565b6000612026611e9f565b905061203781600087878787610b84565b60005b84518110156120ee5783818151811061206357634e487b7160e01b600052603260045260246000fd5b602002602001015160008087848151811061208e57634e487b7160e01b600052603260045260246000fd5b602002602001015181526020019081526020016000206000886001600160a01b03166001600160a01b0316815260200190815260200160002060008282546120d69190614160565b909155508190506120e6816141fd565b91505061203a565b50846001600160a01b031660006001600160a01b0316826001600160a01b03167f4a39dc06d4c0dbc64b70af90fd698a233a518aa5d07e595d983b8c0526c8f7fb878760405161213f929190613548565b60405180910390a461215681600087878787611ea3565b5050505050565b6000805b865181101561221f5785818151811061218a57634e487b7160e01b600052603260045260246000fd5b60200260200101518582815181106121b257634e487b7160e01b600052603260045260246000fd5b602002602001015111156121d85760405162461bcd60e51b815260040161062790614049565b8481815181106121f857634e487b7160e01b600052603260045260246000fd5b60200260200101518261220b9190614160565b915080612217816141fd565b915050612161565b508015610b845760005b8351811015611bec57600061223f868584612b4f565b90506122843386848151811061226557634e487b7160e01b600052603260045260246000fd5b60200260200101518a8460405180602001604052806000815250610926565b508061228f816141fd565b915050612229565b6000838152600560205260409020546122c25760405162461bcd60e51b815260040161062790613920565b6001600160a01b0382166122e85760405162461bcd60e51b815260040161062790613d5c565b60008381526007602090815260408083206001600160a01b0386168452909152902054156123285760405162461bcd60e51b815260040161062790613a36565b60008381526006602090815260408083208484529091529020546001600160a01b0316156123685760405162461bcd60e51b815260040161062790613b28565b60008381526007602090815260408083206001600160a01b03861680855290835281842085905586845260068352818420858552835281842080546001600160a01b0319169091179055858352600890915281208054916123c8836141fd565b9190505550816001600160a01b031681847fb56a823e6990a08f2cb5a86cdfe61be4ec208af136ee5467034287087fc23dc960405160405180910390a4505050565b6001600160a01b0384166124305760405162461bcd60e51b815260040161062790613fd1565b600061243a611e9f565b905061244c81600087611aea886129d4565b6000848152602081815260408083206001600160a01b03891684529091528120805485929061247c908490614160565b92505081905550846001600160a01b031660006001600160a01b0316826001600160a01b03167fc3d58168c5ae7397731d063d5bbf3d657854427343f4c083240f7aacaa2d0f6287876040516124d3929190614104565b60405180910390a461215681600087878787612a2d565b805182511461250b5760405162461bcd60e51b815260040161062790613842565b6000805b835181101561255f5783818151811061253857634e487b7160e01b600052603260045260246000fd5b60200260200101518261254b9190614160565b915080612557816141fd565b91505061250f565b50838111156125805760405162461bcd60e51b815260040161062790614049565b60005b8251811015610b845760008482815181106125ae57634e487b7160e01b600052603260045260246000fd5b602002602001015111156126ba5760006001600160a01b03168382815181106125e757634e487b7160e01b600052603260045260246000fd5b60200260200101516001600160a01b0316141561265057600f5483516001600160a01b039091169084908390811061262f57634e487b7160e01b600052603260045260246000fd5b60200260200101906001600160a01b031690816001600160a01b0316815250505b6126ba3384838151811061267457634e487b7160e01b600052603260045260246000fd5b60200260200101518887858151811061269d57634e487b7160e01b600052603260045260246000fd5b602002602001015160405180602001604052806000815250611a5f565b806126c4816141fd565b915050612583565b6001600160a01b0381166126f25760405162461bcd60e51b815260040161062790613ab6565b60008381526006602090815260408083208584529091529020546001600160a01b03166127315760405162461bcd60e51b815260040161062790613c24565b60008381526007602090815260408083206001600160a01b0385168452909152902054156127715760405162461bcd60e51b81526004016106279061368c565b6000838152600b602090815260408083208584529091529020546001600160a01b031615806127d457506127b5611638600a5460095461287590919063ffffffff16565b6000848152600b60209081526040808320868452909152902060010154105b6127f05760405162461bcd60e51b815260040161062790613e98565b6040805180820182526001600160a01b038381168083524260208085019182526000898152600b8252868120898252909152858120945185546001600160a01b03191694169390931784555160019093019290925591519091849186917ff16e537e43d100a51128271185c07a7f9bdcb840022adcc0cc1ae5cfef68ea7691a4505050565b6000611d498284614160565b60008381526007602090815260408083206001600160a01b0385168452909152902054156128c15760405162461bcd60e51b81526004016106279061380b565b6000838152600b602090815260408083208584529091529020546001600160a01b038281169116146129055760405162461bcd60e51b815260040161062790613cbb565b60095461291290426141ab565b6000848152600b602090815260408083208684529091529020600101541061294c5760405162461bcd60e51b815260040161062790613e19565b600a5460095461295c90426141ab565b61296691906141ab565b6000848152600b60209081526040808320868452909152902060010154116129a05760405162461bcd60e51b815260040161062790613bfa565b60008381526006602090815260408083208584529091529020546129cf9084906001600160a01b031683611d69565b505050565b60408051600180825281830190925260609160009190602080830190803683370190505090508281600081518110612a1c57634e487b7160e01b600052603260045260246000fd5b602090810291909101015292915050565b612a3f846001600160a01b0316612afe565b15610b845760405163f23a6e6160e01b81526001600160a01b0385169063f23a6e6190612a78908990899088908890889060040161346a565b602060405180830381600087803b158015612a9257600080fd5b505af1925050508015612ac2575060408051601f3d908101601f19168201909252612abf918101906130f6565b60015b612ace57611f44614274565b6001600160e01b0319811663f23a6e6160e01b14611bec5760405162461bcd60e51b815260040161062790613644565b3b151590565b60008151604114612b275760405162461bcd60e51b8152600401610627906136c3565b60208201516040830151606084015160001a612b4586828585612c43565b9695505050505050565b606060005b8451811015612c3a576000612b9a8651878481518110612b8457634e487b7160e01b600052603260045260246000fd5b6020026020010151612d3990919063ffffffff16565b90506000612bd98751888581518110612bc357634e487b7160e01b600052603260045260246000fd5b6020026020010151612d4590919063ffffffff16565b9050848111612be9576000612bec565b60015b612bf99060ff1683614160565b868481518110612c1957634e487b7160e01b600052603260045260246000fd5b60200260200101818152505050508080612c32906141fd565b915050612b54565b50919392505050565b60007f7fffffffffffffffffffffffffffffff5d576e7357a4501ddfe92f46681b20a0821115612c855760405162461bcd60e51b8152600401610627906138de565b8360ff16601b1480612c9a57508360ff16601c145b612cb65760405162461bcd60e51b815260040161062790613ae6565b600060018686868660405160008152602001604052604051612cdb9493929190613588565b6020604051602081039080840390855afa158015612cfd573d6000803e3d6000fd5b5050604051601f1901519150506001600160a01b038116612d305760405162461bcd60e51b8152600401610627906135b9565b95945050505050565b6000611d498284614178565b6000611d498284614218565b80356001600160a01b038116811461069957600080fd5b600082601f830112612d78578081fd5b81356020612d8d612d888361413c565b614112565b8281528181019085830183850287018401881015612da9578586fd5b855b85811015612dce57612dbc82612d51565b84529284019290840190600101612dab565b5090979650505050505050565b600082601f830112612deb578081fd5b81356020612dfb612d888361413c565b8281528181019085830183850287018401881015612e17578586fd5b855b85811015612dce57813584529284019290840190600101612e19565b8035801515811461069957600080fd5b600082601f830112612e55578081fd5b813567ffffffffffffffff811115612e6f57612e6f614258565b612e82601f8201601f1916602001614112565b818152846020838601011115612e96578283fd5b816020850160208301379081016020019190915292915050565b600060208284031215612ec1578081fd5b611d4982612d51565b60008060408385031215612edc578081fd5b612ee583612d51565b9150612ef360208401612d51565b90509250929050565b600080600080600060a08688031215612f13578081fd5b612f1c86612d51565b9450612f2a60208701612d51565b9350604086013567ffffffffffffffff80821115612f46578283fd5b612f5289838a01612ddb565b94506060880135915080821115612f67578283fd5b612f7389838a01612ddb565b93506080880135915080821115612f88578283fd5b50612f9588828901612e45565b9150509295509295909350565b600080600080600060a08688031215612fb9578081fd5b612fc286612d51565b9450612fd060208701612d51565b93506040860135925060608601359150608086013567ffffffffffffffff811115612ff9578182fd5b612f9588828901612e45565b60008060408385031215613017578182fd5b61302083612d51565b9150612ef360208401612e35565b60008060408385031215613040578182fd5b61304983612d51565b946020939093013593505050565b60008060408385031215613069578182fd5b823567ffffffffffffffff80821115613080578384fd5b61308c86838701612d68565b935060208501359150808211156130a1578283fd5b506130ae85828601612ddb565b9150509250929050565b600080604083850312156130ca578182fd5b82359150612ef360208401612e35565b6000602082840312156130eb578081fd5b8135611d4981614319565b600060208284031215613107578081fd5b8151611d4981614319565b600060208284031215613123578081fd5b5035919050565b6000806040838503121561313c578182fd5b82359150612ef360208401612d51565b600080600080600080600080610100898b031215613168578586fd5b88359750602089013567ffffffffffffffff80821115613186578788fd5b6131928c838d01612ddb565b985060408b01359150808211156131a7578788fd5b6131b38c838d01612ddb565b975060608b01359150808211156131c8578485fd5b6131d48c838d01612ddb565b965060808b01359150808211156131e9578485fd5b6131f58c838d01612d68565b955060a08b013591508082111561320a578485fd5b6132168c838d01612ddb565b945060c08b0135935060e08b0135915080821115613232578283fd5b5061323f8b828c01612e45565b9150509295985092959890939650565b60008060408385031215613261578182fd5b50508035926020909101359150565b600080600080600080600060e0888a03121561328a578081fd5b873596506020880135955060408801359450606088013567ffffffffffffffff808211156132b6578283fd5b6132c28b838c01612ddb565b955060808a01359150808211156132d7578283fd5b6132e38b838c01612d68565b945060a08a0135935060c08a01359150808211156132ff578283fd5b5061330c8a828b01612e45565b91505092959891949750929550565b60008060008060808587031215613330578182fd5b843593506020850135925060408501359150606085013567ffffffffffffffff81111561335b578182fd5b61336787828801612e45565b91505092959194509250565b6000815180845260208085019450808401835b838110156133a257815187529582019590820190600101613386565b509495945050505050565b60008151808452815b818110156133d2576020818501810151868301820152016133b6565b818111156133e35782602083870101525b50601f01601f19169290920160200192915050565b6001600160a01b0391909116815260200190565b6001600160a01b0386811682528516602082015260a06040820181905260009061343890830186613373565b828103606084015261344a8186613373565b9050828103608084015261345e81856133ad565b98975050505050505050565b6001600160a01b03868116825285166020820152604081018490526060810183905260a0608082018190526000906134a4908301846133ad565b979650505050505050565b6001600160a01b03929092168252602082015260400190565b602080825282518282018190526000919060409081850190868401855b8281101561352857815180516001600160a01b031685528681015187860152858101518686015260609081015190850152608090930192908501906001016134e5565b5091979650505050505050565b600060208252611d496020830184613373565b60006040825261355b6040830185613373565b8281036020840152612d308185613373565b901515815260200190565b9182521515602082015260400190565b93845260ff9290921660208401526040830152606082015260800190565b600060208252611d4960208301846133ad565b60208082526018908201527f45434453413a20696e76616c6964207369676e61747572650000000000000000604082015260600190565b60208082526034908201527f455243313135353a207472616e7366657220746f206e6f6e20455243313135356040820152732932b1b2b4bb32b91034b6b83632b6b2b73a32b960611b606082015260800190565b60208082526028908201527f455243313135353a204552433131353552656365697665722072656a656374656040820152676420746f6b656e7360c01b606082015260800190565b6020808252601a908201527f436c61696d6572206f776e7320736f6d65206964656e74697479000000000000604082015260600190565b6020808252601f908201527f45434453413a20696e76616c6964207369676e6174757265206c656e67746800604082015260600190565b6020808252602b908201527f455243313135353a2062616c616e636520717565727920666f7220746865207a60408201526a65726f206164647265737360a81b606082015260800190565b60208082526026908201527f4f776e61626c653a206e6577206f776e657220697320746865207a65726f206160408201526564647265737360d01b606082015260800190565b60208082526019908201527f5f6e6577416464726573732063616e6e6f742062652030783000000000000000604082015260600190565b60208082526029908201527f455243313135353a2063616c6c6572206973206e6f74206f776e6572206e6f7260408201526808185c1c1c9bdd995960ba1b606082015260800190565b6020808252601d908201527f436c61696d6572206f776e7320616e6f74686572206964656e74697479000000604082015260600190565b60208082526026908201527f446f6e6174696f6e732061726520696e636f6e73697374656e74207769746820604082015265646f6e65657360d01b606082015260800190565b6020808252601190820152700496e76616c69642074696d657374616d7607c1b604082015260600190565b602080825260119082015270496e76616c6964207369676e617475726560781b604082015260600190565b60208082526022908201527f45434453413a20696e76616c6964207369676e6174757265202773272076616c604082015261756560f01b606082015260800190565b6020808252600f908201526e0556e737570706f727465642061707608c1b604082015260600190565b6020808252600e908201526d456d707479206e69636b6e616d6560901b604082015260600190565b60208082526025908201527f455243313135353a207472616e7366657220746f20746865207a65726f206164604082015264647265737360d81b606082015260800190565b60208082526032908201527f455243313135353a207472616e736665722063616c6c6572206973206e6f74206040820152711bdddb995c881b9bdc88185c1c1c9bdd995960721b606082015260800190565b60208082526014908201527313995dc8185c1c1cc81b9bdd08185b1b1bddd95960621b604082015260600190565b6020808252602b908201527f4578697374696e67206964656e7469747920666f756e6420666f72205f61707060408201526a49642f5f6164647265737360a81b606082015260800190565b6020808252818101527f41727261797327206c656e677468732061726520696e636f6e73697374656e74604082015260600190565b60208082526016908201527505f636c61696d65722063616e6e6f74206265203078360541b604082015260600190565b60208082526022908201527f45434453413a20696e76616c6964207369676e6174757265202776272076616c604082015261756560f01b606082015260800190565b60208082526026908201527f4578697374696e67206964656e7469747920666f756e6420666f72205f61707060408201526512590bd7da5960d21b606082015260800190565b6020808252602a908201527f455243313135353a20696e73756666696369656e742062616c616e636520666f60408201526939103a3930b739b332b960b11b606082015260800190565b60208082526022908201527f546f6b656e73206d696e74656420617420612074696d65206f766572206c696d6040820152611a5d60f21b606082015260800190565b60208082526010908201526f10db185a5b481a5cc8195e1c1a5c995960821b604082015260600190565b6020808252601a908201527f436c61696d6564206964656e74697479206e6f7420666f756e64000000000000604082015260600190565b60208082526011908201527014da59db985d1d5c9948195e1c1a5c9959607a1b604082015260600190565b6020808252818101527f4f776e61626c653a2063616c6c6572206973206e6f7420746865206f776e6572604082015260600190565b6020808252600f908201526e10db185a5b481b9bdd08199bdd5b99608a1b604082015260600190565b60208082526010908201526f125b9d985b1a59081d1bdad95b88125160821b604082015260600190565b6020808252602e908201527f4578697374696e67206964656e7469747920666f756e6420666f72205f61707060408201526d49642f5f6e65774164647265737360901b606082015260800190565b60208082526016908201527505f616464726573732063616e6e6f74206265203078360541b604082015260600190565b60208082526010908201526f496e76616c696420737570706c69657360801b604082015260600190565b6020808252601290820152711259195b9d1a5d1e481b9bdd08199bdd5b9960721b604082015260600190565b6020808252601d908201527f436c61696d206279206d73672e73656e646572206e6f7420666f756e64000000604082015260600190565b6020808252601d908201527f50726f626174696f6e2074696d65206e6f742070617373656420796574000000604082015260600190565b60208082526028908201527f4e6f206964656e7469747920666f756e6420666f72205f61707049642f5f6f6c604082015267644164647265737360c01b606082015260800190565b6020808252601f908201527f41637469766520636c61696d20666f756e6420666f72206964656e7469747900604082015260600190565b60208082526029908201527f455243313135353a2073657474696e6720617070726f76616c20737461747573604082015268103337b91039b2b63360b91b606082015260800190565b60208082526029908201527f455243313135353a206163636f756e747320616e6420696473206c656e677468604082015268040dad2e6dac2e8c6d60bb1b606082015260800190565b60208082526028908201527f455243313135353a2069647320616e6420616d6f756e7473206c656e677468206040820152670dad2e6dac2e8c6d60c31b606082015260800190565b6020808252600e908201526d496e76616c696420737570706c7960901b604082015260600190565b60208082526021908201527f455243313135353a206d696e7420746f20746865207a65726f206164647265736040820152607360f81b606082015260800190565b60208082526019908201527f546f6f206561726c7920666f72206e6577206d696e74696e6700000000000000604082015260600190565b60208082526027908201527f446f6e6174696f6e732063616e206e6f74206265206c6172676572207468616e60408201526620737570706c7960c81b606082015260800190565b90815260200190565b600086825260018060a01b038616602083015284604083015260a060608301526140c660a0830185613373565b90508260808301529695505050505050565b9485526001600160a01b0393909316602085015260408401919091526060830152608082015260a00190565b918252602082015260400190565b60405181810167ffffffffffffffff8111828210171561413457614134614258565b604052919050565b600067ffffffffffffffff82111561415657614156614258565b5060209081020190565b600082198211156141735761417361422c565b500190565b60008261418757614187614242565b500490565b60008160001904831182151516156141a6576141a661422c565b500290565b6000828210156141bd576141bd61422c565b500390565b6002810460018216806141d657607f821691505b602082108114156141f757634e487b7160e01b600052602260045260246000fd5b50919050565b60006000198214156142115761421161422c565b5060010190565b60008261422757614227614242565b500690565b634e487b7160e01b600052601160045260246000fd5b634e487b7160e01b600052601260045260246000fd5b634e487b7160e01b600052604160045260246000fd5b60e01c90565b600060443d101561428457610b8e565b600481823e6308c379a0614298825161426e565b146142a257610b8e565b6040513d600319016004823e80513d67ffffffffffffffff81602484011181841117156142d25750505050610b8e565b828401925082519150808211156142ec5750505050610b8e565b503d8301602082840101111561430457505050610b8e565b601f01601f1916810160200160405291505090565b6001600160e01b03198116811461432f57600080fd5b5056fea26469706673582212200478c37b1714b9f1e18a1cb95a0c1b85b8840661d1dfd1fad3d3c475a2883a0364736f6c63430008000033",
  "linkReferences": {},
  "deployedLinkReferences": {}
}