{
  "_format": "hh-sol-artifact-1",
  "contractName": "Tweedentity",
  "sourceName": "contracts/Tweedentity.sol",
  "abi": [
    {
      "inputs": [
        {
          "internalType": "address",
          "name": "_oracle",
          "type": "address"
        },
        {
          "internalType": "address",
          "name": "_donee",
          "type": "address"
        },
        {
          "internalType": "string",
          "name": "_uri",
          "type": "string"
        },
        {
          "internalType": "uint256",
          "name": "_maxSupply",
          "type": "uint256"
        }
      ],
      "stateMutability": "nonpayable",
      "type": "constructor"
    },
    {
      "anonymous": false,
      "inputs": [
        {
          "indexed": true,
          "internalType": "uint256",
          "name": "id",
          "type": "uint256"
        },
        {
          "indexed": true,
          "internalType": "string",
          "name": "nickname",
          "type": "string"
        }
      ],
      "name": "AppAdded",
      "type": "event"
    },
    {
      "anonymous": false,
      "inputs": [
        {
          "indexed": true,
          "internalType": "address",
          "name": "account",
          "type": "address"
        },
        {
          "indexed": true,
          "internalType": "address",
          "name": "operator",
          "type": "address"
        },
        {
          "indexed": false,
          "internalType": "bool",
          "name": "approved",
          "type": "bool"
        }
      ],
      "name": "ApprovalForAll",
      "type": "event"
    },
    {
      "anonymous": false,
      "inputs": [
        {
          "indexed": true,
          "internalType": "address",
          "name": "_donee",
          "type": "address"
        }
      ],
      "name": "DoneeUpdated",
      "type": "event"
    },
    {
      "anonymous": false,
      "inputs": [
        {
          "indexed": true,
          "internalType": "uint256",
          "name": "_appId",
          "type": "uint256"
        },
        {
          "indexed": true,
          "internalType": "address",
          "name": "_addr",
          "type": "address"
        },
        {
          "indexed": true,
          "internalType": "bytes32",
          "name": "_id",
          "type": "bytes32"
        }
      ],
      "name": "IdentitySet",
      "type": "event"
    },
    {
      "anonymous": false,
      "inputs": [
        {
          "indexed": true,
          "internalType": "uint256",
          "name": "_appId",
          "type": "uint256"
        },
        {
          "indexed": true,
          "internalType": "address",
          "name": "_addr",
          "type": "address"
        },
        {
          "indexed": true,
          "internalType": "bytes32",
          "name": "_id",
          "type": "bytes32"
        }
      ],
      "name": "IdentityUpdated",
      "type": "event"
    },
    {
      "anonymous": false,
      "inputs": [
        {
          "indexed": false,
          "internalType": "uint256",
          "name": "_maxSupply",
          "type": "uint256"
        }
      ],
      "name": "MaxSupplyUpdated",
      "type": "event"
    },
    {
      "anonymous": false,
      "inputs": [
        {
          "indexed": true,
          "internalType": "address",
          "name": "_donee",
          "type": "address"
        }
      ],
      "name": "OracleUpdated",
      "type": "event"
    },
    {
      "anonymous": false,
      "inputs": [
        {
          "indexed": true,
          "internalType": "address",
          "name": "previousOwner",
          "type": "address"
        },
        {
          "indexed": true,
          "internalType": "address",
          "name": "newOwner",
          "type": "address"
        }
      ],
      "name": "OwnershipTransferred",
      "type": "event"
    },
    {
      "anonymous": false,
      "inputs": [
        {
          "indexed": true,
          "internalType": "address",
          "name": "operator",
          "type": "address"
        },
        {
          "indexed": true,
          "internalType": "address",
          "name": "from",
          "type": "address"
        },
        {
          "indexed": true,
          "internalType": "address",
          "name": "to",
          "type": "address"
        },
        {
          "indexed": false,
          "internalType": "uint256[]",
          "name": "ids",
          "type": "uint256[]"
        },
        {
          "indexed": false,
          "internalType": "uint256[]",
          "name": "values",
          "type": "uint256[]"
        }
      ],
      "name": "TransferBatch",
      "type": "event"
    },
    {
      "anonymous": false,
      "inputs": [
        {
          "indexed": true,
          "internalType": "address",
          "name": "operator",
          "type": "address"
        },
        {
          "indexed": true,
          "internalType": "address",
          "name": "from",
          "type": "address"
        },
        {
          "indexed": true,
          "internalType": "address",
          "name": "to",
          "type": "address"
        },
        {
          "indexed": false,
          "internalType": "uint256",
          "name": "id",
          "type": "uint256"
        },
        {
          "indexed": false,
          "internalType": "uint256",
          "name": "value",
          "type": "uint256"
        }
      ],
      "name": "TransferSingle",
      "type": "event"
    },
    {
      "anonymous": false,
      "inputs": [
        {
          "indexed": false,
          "internalType": "string",
          "name": "value",
          "type": "string"
        },
        {
          "indexed": true,
          "internalType": "uint256",
          "name": "id",
          "type": "uint256"
        }
      ],
      "name": "URI",
      "type": "event"
    },
    {
      "inputs": [
        {
          "internalType": "string",
          "name": "_appNickname",
          "type": "string"
        },
        {
          "internalType": "bool",
          "name": "_pureNumber",
          "type": "bool"
        }
      ],
      "name": "addApp",
      "outputs": [],
      "stateMutability": "nonpayable",
      "type": "function"
    },
    {
      "inputs": [
        {
          "internalType": "uint256",
          "name": "",
          "type": "uint256"
        },
        {
          "internalType": "bytes32",
          "name": "",
          "type": "bytes32"
        }
      ],
      "name": "addressById",
      "outputs": [
        {
          "internalType": "address",
          "name": "",
          "type": "address"
        }
      ],
      "stateMutability": "view",
      "type": "function"
    },
    {
      "inputs": [
        {
          "internalType": "uint256",
          "name": "",
          "type": "uint256"
        }
      ],
      "name": "apps",
      "outputs": [
        {
          "internalType": "string",
          "name": "nickname",
          "type": "string"
        },
        {
          "internalType": "bool",
          "name": "hashPureNumberId",
          "type": "bool"
        }
      ],
      "stateMutability": "view",
      "type": "function"
    },
    {
      "inputs": [
        {
          "internalType": "address",
          "name": "account",
          "type": "address"
        },
        {
          "internalType": "uint256",
          "name": "id",
          "type": "uint256"
        }
      ],
      "name": "balanceOf",
      "outputs": [
        {
          "internalType": "uint256",
          "name": "",
          "type": "uint256"
        }
      ],
      "stateMutability": "view",
      "type": "function"
    },
    {
      "inputs": [
        {
          "internalType": "address[]",
          "name": "accounts",
          "type": "address[]"
        },
        {
          "internalType": "uint256[]",
          "name": "ids",
          "type": "uint256[]"
        }
      ],
      "name": "balanceOfBatch",
      "outputs": [
        {
          "internalType": "uint256[]",
          "name": "",
          "type": "uint256[]"
        }
      ],
      "stateMutability": "view",
      "type": "function"
    },
    {
      "inputs": [],
      "name": "donee",
      "outputs": [
        {
          "internalType": "address",
          "name": "",
          "type": "address"
        }
      ],
      "stateMutability": "view",
      "type": "function"
    },
    {
      "inputs": [
        {
          "internalType": "uint256",
          "name": "",
          "type": "uint256"
        },
        {
          "internalType": "address",
          "name": "",
          "type": "address"
        }
      ],
      "name": "idByAddress",
      "outputs": [
        {
          "internalType": "bytes32",
          "name": "",
          "type": "bytes32"
        }
      ],
      "stateMutability": "view",
      "type": "function"
    },
    {
      "inputs": [
        {
          "internalType": "address",
          "name": "account",
          "type": "address"
        },
        {
          "internalType": "address",
          "name": "operator",
          "type": "address"
        }
      ],
      "name": "isApprovedForAll",
      "outputs": [
        {
          "internalType": "bool",
          "name": "",
          "type": "bool"
        }
      ],
      "stateMutability": "view",
      "type": "function"
    },
    {
      "inputs": [
        {
          "internalType": "bytes32",
          "name": "",
          "type": "bytes32"
        }
      ],
      "name": "lastMintedById",
      "outputs": [
        {
          "internalType": "uint256",
          "name": "",
          "type": "uint256"
        }
      ],
      "stateMutability": "view",
      "type": "function"
    },
    {
      "inputs": [],
      "name": "maxMintingEvents",
      "outputs": [
        {
          "internalType": "uint256",
          "name": "",
          "type": "uint256"
        }
      ],
      "stateMutability": "view",
      "type": "function"
    },
    {
      "inputs": [],
      "name": "maxNumberOfApps",
      "outputs": [
        {
          "internalType": "uint256",
          "name": "",
          "type": "uint256"
        }
      ],
      "stateMutability": "view",
      "type": "function"
    },
    {
      "inputs": [],
      "name": "maxSupply",
      "outputs": [
        {
          "internalType": "uint256",
          "name": "",
          "type": "uint256"
        }
      ],
      "stateMutability": "view",
      "type": "function"
    },
    {
      "inputs": [
        {
          "internalType": "uint256",
          "name": "_appId",
          "type": "uint256"
        },
        {
          "internalType": "uint256",
          "name": "_tokenId",
          "type": "uint256"
        },
        {
          "internalType": "uint256",
          "name": "_supply",
          "type": "uint256"
        },
        {
          "internalType": "uint256",
          "name": "_donation",
          "type": "uint256"
        },
        {
          "internalType": "address[]",
          "name": "_otherDonees",
          "type": "address[]"
        },
        {
          "internalType": "uint256[]",
          "name": "_otherDonations",
          "type": "uint256[]"
        },
        {
          "internalType": "bytes",
          "name": "_signature",
          "type": "bytes"
        }
      ],
      "name": "mintNewEdition",
      "outputs": [],
      "stateMutability": "nonpayable",
      "type": "function"
    },
    {
      "inputs": [
        {
          "internalType": "uint256",
          "name": "_appId",
          "type": "uint256"
        },
        {
          "internalType": "bytes32",
          "name": "_id",
          "type": "bytes32"
        }
      ],
      "name": "nextTokenId",
      "outputs": [
        {
          "internalType": "uint256",
          "name": "",
          "type": "uint256"
        }
      ],
      "stateMutability": "view",
      "type": "function"
    },
    {
      "inputs": [],
      "name": "oracle",
      "outputs": [
        {
          "internalType": "address",
          "name": "",
          "type": "address"
        }
      ],
      "stateMutability": "view",
      "type": "function"
    },
    {
      "inputs": [],
      "name": "owner",
      "outputs": [
        {
          "internalType": "address",
          "name": "",
          "type": "address"
        }
      ],
      "stateMutability": "view",
      "type": "function"
    },
    {
      "inputs": [],
      "name": "renounceOwnership",
      "outputs": [],
      "stateMutability": "nonpayable",
      "type": "function"
    },
    {
      "inputs": [
        {
          "internalType": "address",
          "name": "from",
          "type": "address"
        },
        {
          "internalType": "address",
          "name": "to",
          "type": "address"
        },
        {
          "internalType": "uint256[]",
          "name": "ids",
          "type": "uint256[]"
        },
        {
          "internalType": "uint256[]",
          "name": "amounts",
          "type": "uint256[]"
        },
        {
          "internalType": "bytes",
          "name": "data",
          "type": "bytes"
        }
      ],
      "name": "safeBatchTransferFrom",
      "outputs": [],
      "stateMutability": "nonpayable",
      "type": "function"
    },
    {
      "inputs": [
        {
          "internalType": "address",
          "name": "from",
          "type": "address"
        },
        {
          "internalType": "address",
          "name": "to",
          "type": "address"
        },
        {
          "internalType": "uint256",
          "name": "id",
          "type": "uint256"
        },
        {
          "internalType": "uint256",
          "name": "amount",
          "type": "uint256"
        },
        {
          "internalType": "bytes",
          "name": "data",
          "type": "bytes"
        }
      ],
      "name": "safeTransferFrom",
      "outputs": [],
      "stateMutability": "nonpayable",
      "type": "function"
    },
    {
      "inputs": [
        {
          "internalType": "address",
          "name": "operator",
          "type": "address"
        },
        {
          "internalType": "bool",
          "name": "approved",
          "type": "bool"
        }
      ],
      "name": "setApprovalForAll",
      "outputs": [],
      "stateMutability": "nonpayable",
      "type": "function"
    },
    {
      "inputs": [
        {
          "internalType": "uint256",
          "name": "_appId",
          "type": "uint256"
        },
        {
          "internalType": "bytes32",
          "name": "_id",
          "type": "bytes32"
        },
        {
          "internalType": "bytes",
          "name": "_signature",
          "type": "bytes"
        }
      ],
      "name": "setIdentity",
      "outputs": [],
      "stateMutability": "nonpayable",
      "type": "function"
    },
    {
      "inputs": [
        {
          "internalType": "bytes4",
          "name": "interfaceId",
          "type": "bytes4"
        }
      ],
      "name": "supportsInterface",
      "outputs": [
        {
          "internalType": "bool",
          "name": "",
          "type": "bool"
        }
      ],
      "stateMutability": "view",
      "type": "function"
    },
    {
      "inputs": [
        {
          "internalType": "uint256",
          "name": "",
          "type": "uint256"
        }
      ],
      "name": "totalIdentities",
      "outputs": [
        {
          "internalType": "uint256",
          "name": "",
          "type": "uint256"
        }
      ],
      "stateMutability": "view",
      "type": "function"
    },
    {
      "inputs": [
        {
          "internalType": "address",
          "name": "newOwner",
          "type": "address"
        }
      ],
      "name": "transferOwnership",
      "outputs": [],
      "stateMutability": "nonpayable",
      "type": "function"
    },
    {
      "inputs": [
        {
          "internalType": "address",
          "name": "_donee",
          "type": "address"
        }
      ],
      "name": "updateDonee",
      "outputs": [],
      "stateMutability": "nonpayable",
      "type": "function"
    },
    {
      "inputs": [
        {
          "internalType": "uint256",
          "name": "_appId",
          "type": "uint256"
        },
        {
          "internalType": "address",
          "name": "_newAddress",
          "type": "address"
        }
      ],
      "name": "updateIdentity",
      "outputs": [],
      "stateMutability": "nonpayable",
      "type": "function"
    },
    {
      "inputs": [
        {
          "internalType": "uint256",
          "name": "_maxSupply",
          "type": "uint256"
        }
      ],
      "name": "updateMaxSupply",
      "outputs": [],
      "stateMutability": "nonpayable",
      "type": "function"
    },
    {
      "inputs": [
        {
          "internalType": "address",
          "name": "_oracle",
          "type": "address"
        }
      ],
      "name": "updateOracle",
      "outputs": [],
      "stateMutability": "nonpayable",
      "type": "function"
    },
    {
      "inputs": [
        {
          "internalType": "uint256",
          "name": "",
          "type": "uint256"
        }
      ],
      "name": "uri",
      "outputs": [
        {
          "internalType": "string",
          "name": "",
          "type": "string"
        }
      ],
      "stateMutability": "view",
      "type": "function"
    },
    {
      "inputs": [],
      "name": "versionStr",
      "outputs": [
        {
          "internalType": "string",
          "name": "",
          "type": "string"
        }
      ],
      "stateMutability": "view",
      "type": "function"
    }
  ],
  "bytecode": "0x60c060405260056080819052640322e302e360dc1b60a0908152620000289160049190620002db565b5060646006556103e8600e553480156200004157600080fd5b506040516200344b3803806200344b83398101604081905262000064916200039e565b838262000071816200015c565b5060006200007e62000175565b600380546001600160a01b0319166001600160a01b038316908117909155604051919250906000907f8be0079c531659141344cd1fd0a4f28419497f9722a3daafe3b4186f6b6457e0908290a3506040805180820190915260078152663a3bb4ba3a32b960c91b6020820152620000f790600162000179565b6040805180820190915260068152651c9959191a5d60d21b60208201526200012190600062000179565b600b80546001600160a01b039283166001600160a01b031991821617909155600c80549590921694169390931790925550600d5550620005da565b805162000171906002906020840190620002db565b5050565b3390565b6200018362000175565b6001600160a01b031662000196620002cc565b6001600160a01b031614620001c85760405162461bcd60e51b8152600401620001bf90620004f7565b60405180910390fd5b6000825111620001ec5760405162461bcd60e51b8152600401620001bf9062000498565b60065460055410620002125760405162461bcd60e51b8152600401620001bf90620004c0565b6005805490600062000224836200059c565b9091555050604080518082018252838152821515602080830191909152600554600090815260078252929092208151805192939192620002689284920190620002db565b50602091909101516001909101805460ff1916911515919091179055604051620002949083906200047a565b60405190819003812060055490917f3b91dd71316ee5ff2c0e081a8b6135ef0592f6ba203d12f635324347a2aff4f890600090a35050565b6003546001600160a01b031690565b828054620002e9906200055f565b90600052602060002090601f0160209004810192826200030d576000855562000358565b82601f106200032857805160ff191683800117855562000358565b8280016001018555821562000358579182015b82811115620003585782518255916020019190600101906200033b565b50620003669291506200036a565b5090565b5b808211156200036657600081556001016200036b565b80516001600160a01b03811681146200039957600080fd5b919050565b60008060008060808587031215620003b4578384fd5b620003bf8562000381565b9350620003cf6020860162000381565b60408601519093506001600160401b0380821115620003ec578384fd5b818701915087601f83011262000400578384fd5b815181811115620004155762000415620005c4565b604051601f8201601f1916810160200183811182821017156200043c576200043c620005c4565b6040528181528382016020018a101562000454578586fd5b620004678260208301602087016200052c565b6060989098015196999598505050505050565b600082516200048e8184602087016200052c565b9190910192915050565b6020808252600e908201526d456d707479206e69636b6e616d6560901b604082015260600190565b60208082526014908201527f4e65772061707073206e6f7420616c6c6f776564000000000000000000000000604082015260600190565b6020808252818101527f4f776e61626c653a2063616c6c6572206973206e6f7420746865206f776e6572604082015260600190565b60005b83811015620005495781810151838201526020016200052f565b8381111562000559576000848401525b50505050565b6002810460018216806200057457607f821691505b602082108114156200059657634e487b7160e01b600052602260045260246000fd5b50919050565b6000600019821415620005bd57634e487b7160e01b81526011600452602481fd5b5060010190565b634e487b7160e01b600052604160045260246000fd5b612e6180620005ea6000396000f3fe608060405234801561001057600080fd5b50600436106101d95760003560e01c806372da231c11610104578063d5abeb01116100a2578063f103b43311610071578063f103b433146103ce578063f242432a146103e1578063f2fde38b146103f4578063fe3c9ef814610407576101d9565b8063d5abeb0114610398578063de750c50146103a0578063e985e9c5146103b3578063ecf215f5146103c6576101d9565b8063a22cb465116100de578063a22cb4651461034c578063a5769d131461035f578063a9823e5714610372578063c18d308214610385576101d9565b806372da231c146103295780637dc0d1d01461033c5780638da5cb5b14610344576101d9565b80632eb2c2d61161017c57806354f0c8971161014b57806354f0c897146102d85780635de343ed146102ed57806361acc37e14610300578063715018a614610321576101d9565b80632eb2c2d61461028a578063388a41e51461029d5780634d59f243146102b05780634e1273f4146102b8576101d9565b80630c5b210b116101b85780630c5b210b1461022f5780630d5b1936146102425780630e89341c146102575780631cb44dfc14610277576101d9565b8062fdd58e146101de57806301ffc9a714610207578063088ecbab14610227575b600080fd5b6101f16101ec366004612068565b61041a565b6040516101fe9190612471565b60405180910390f35b61021a61021536600461210a565b610471565b6040516101fe9190612466565b6101f16104b9565b6101f161023d366004612198565b6104bf565b610255610250366004612198565b6104dc565b005b61026a6102653660046120f2565b610620565b6040516101fe9190612498565b610255610285366004611eea565b6106b4565b610255610298366004611f36565b61073d565b6101f16102ab3660046120f2565b6109a3565b61026a6109b5565b6102cb6102c6366004612091565b610a43565b6040516101fe919061242e565b6102e0610b63565b6040516101fe9190612356565b6101f16102fb3660046120f2565b610b72565b61031361030e3660046120f2565b610b84565b6040516101fe9291906124ab565b610255610c2b565b610255610337366004612229565b610cb4565b6102e0610fae565b6102e0610fbd565b61025561035a36600461203f565b610fcd565b61025561036d3660046121db565b61109b565b610255610380366004611eea565b611206565b610255610393366004612142565b61128f565b6101f16113c6565b6101f16103ae3660046121ba565b6113cc565b61021a6103c1366004611f04565b61142f565b6101f161145d565b6102556103dc3660046120f2565b611463565b6102556103ef366004611fdc565b6114e2565b610255610402366004611eea565b611678565b6102e06104153660046121ba565b611739565b60006001600160a01b03831661044b5760405162461bcd60e51b815260040161044290612607565b60405180910390fd5b506000908152602081815260408083206001600160a01b03949094168352929052205490565b60006001600160e01b03198216636cdb3d1360e11b14806104a257506001600160e01b031982166303a24d0760e21b145b806104b157506104b18261175f565b90505b919050565b600e5481565b600960209081526000928352604080842090915290825290205481565b60008281526007602052604081208054849291906104f990612ce5565b9050116105185760405162461bcd60e51b81526004016104429061278b565b816001600160a01b03811661053f5760405162461bcd60e51b815260040161044290612723565b6000848152600960209081526040808320338085529252909120548591906105795760405162461bcd60e51b815260040161044290612a1e565b60008681526009602090815260408083206001600160a01b038916845290915290205486908690156105bd5760405162461bcd60e51b8152600401610442906127b4565b6105c78888611778565b60008881526009602090815260408083206001600160a01b038b168452909152808220549051909133918b917f3801a47d88648e023bb3e9423a8c1ac96d8a5984da7b4a094ce7cd9100a0924991a45050505050505050565b60606002805461062f90612ce5565b80601f016020809104026020016040519081016040528092919081815260200182805461065b90612ce5565b80156106a85780601f1061067d576101008083540402835291602001916106a8565b820191906000526020600020905b81548152906001019060200180831161068b57829003601f168201915b50505050509050919050565b6106bc6117d8565b6001600160a01b03166106cd610fbd565b6001600160a01b0316146106f35760405162461bcd60e51b81526004016104429061295d565b600b80546001600160a01b0319166001600160a01b0383169081179091556040517f3df77beb5db05fcdd70a30fc8adf3f83f9501b68579455adbd100b818094039490600090a250565b815183511461075e5760405162461bcd60e51b815260040161044290612b13565b6001600160a01b0384166107845760405162461bcd60e51b81526004016104429061280c565b61078c6117d8565b6001600160a01b0316856001600160a01b031614806107b257506107b2856103c16117d8565b6107ce5760405162461bcd60e51b815260040161044290612851565b60006107d86117d8565b90506107e881878787878761099b565b60005b845181101561093557600085828151811061081657634e487b7160e01b600052603260045260246000fd5b60200260200101519050600085838151811061084257634e487b7160e01b600052603260045260246000fd5b602090810291909101810151600084815280835260408082206001600160a01b038e1683529093529190912054909150818110156108925760405162461bcd60e51b815260040161044290612913565b61089c8282612c9e565b60008085815260200190815260200160002060008c6001600160a01b03166001600160a01b03168152602001908152602001600020819055508160008085815260200190815260200160002060008b6001600160a01b03166001600160a01b03168152602001908152602001600020600082825461091a9190612c67565b925050819055505050508061092e90612d20565b90506107eb565b50846001600160a01b0316866001600160a01b0316826001600160a01b03167f4a39dc06d4c0dbc64b70af90fd698a233a518aa5d07e595d983b8c0526c8f7fb8787604051610985929190612441565b60405180910390a461099b8187878787876117dc565b505050505050565b600a6020526000908152604090205481565b600480546109c290612ce5565b80601f01602080910402602001604051908101604052809291908181526020018280546109ee90612ce5565b8015610a3b5780601f10610a1057610100808354040283529160200191610a3b565b820191906000526020600020905b815481529060010190602001808311610a1e57829003601f168201915b505050505081565b60608151835114610a665760405162461bcd60e51b815260040161044290612aca565b6000835167ffffffffffffffff811115610a9057634e487b7160e01b600052604160045260246000fd5b604051908082528060200260200182016040528015610ab9578160200160208202803683370190505b50905060005b8451811015610b5b57610b20858281518110610aeb57634e487b7160e01b600052603260045260246000fd5b6020026020010151858381518110610b1357634e487b7160e01b600052603260045260246000fd5b602002602001015161041a565b828281518110610b4057634e487b7160e01b600052603260045260246000fd5b6020908102919091010152610b5481612d20565b9050610abf565b509392505050565b600c546001600160a01b031681565b600f6020526000908152604090205481565b600760205260009081526040902080548190610b9f90612ce5565b80601f0160208091040260200160405190810160405280929190818152602001828054610bcb90612ce5565b8015610c185780601f10610bed57610100808354040283529160200191610c18565b820191906000526020600020905b815481529060010190602001808311610bfb57829003601f168201915b5050506001909301549192505060ff1682565b610c336117d8565b6001600160a01b0316610c44610fbd565b6001600160a01b031614610c6a5760405162461bcd60e51b81526004016104429061295d565b6003546040516000916001600160a01b0316907f8be0079c531659141344cd1fd0a4f28419497f9722a3daafe3b4186f6b6457e0908390a3600380546001600160a01b0319169055565b600087815260096020908152604080832033808552925290912054889190610cee5760405162461bcd60e51b815260040161044290612a1e565b610d22338a8a604051602001610d069392919061240d565b60405160208183030381529060405280519060200120846118ea565b610d3e5760405162461bcd60e51b8152600401610442906125a2565b600089815260096020908152604080832033845290915290205480610d755760405162461bcd60e51b815260040161044290612a55565b610d7f8a826113cc565b8914610d9d5760405162461bcd60e51b8152600401610442906129c9565b600088118015610daf5750600d548811155b610dcb5760405162461bcd60e51b815260040161044290612b5b565b8451865114610dec5760405162461bcd60e51b815260040161044290612698565b8660005b8751811015610ea15760006001600160a01b0316888281518110610e2457634e487b7160e01b600052603260045260246000fd5b60200260200101516001600160a01b03161415610e535760405162461bcd60e51b815260040161044290612992565b610e8d878281518110610e7657634e487b7160e01b600052603260045260246000fd5b60200260200101518361190e90919063ffffffff16565b915080610e9981612d20565b915050610df0565b5088811115610ec25760405162461bcd60e51b815260040161044290612bc4565b6000828152600f6020526040902054610edc90600161190e565b6000838152600f60205260409020556060610ef9338c8c84611921565b8115610fa0578815610f1f57600c54610f1f9033906001600160a01b03168d8c856114e2565b60005b8851811015610f9e576000898281518110610f4d57634e487b7160e01b600052603260045260246000fd5b60200260200101519050610f8b33828f8c8681518110610f7d57634e487b7160e01b600052603260045260246000fd5b6020026020010151876114e2565b5080610f9681612d20565b915050610f22565b505b505050505050505050505050565b600b546001600160a01b031681565b6003546001600160a01b03165b90565b816001600160a01b0316610fdf6117d8565b6001600160a01b031614156110065760405162461bcd60e51b815260040161044290612a81565b80600160006110136117d8565b6001600160a01b03908116825260208083019390935260409182016000908120918716808252919093529120805460ff1916921515929092179091556110576117d8565b6001600160a01b03167f17307eab39ab6107e8899845ad3d59bd9653f200f220920489ca2b5937696c318360405161108f9190612466565b60405180910390a35050565b60008381526007602052604081208054859291906110b890612ce5565b9050116110d75760405162461bcd60e51b81526004016104429061278b565b33806110f55760405162461bcd60e51b815260040161044290612723565b6000858152600960209081526040808320338085529252909120548691908690156111325760405162461bcd60e51b8152600401610442906127b4565b60008381526008602090815260408083208484529091529020546001600160a01b0316156111725760405162461bcd60e51b8152600401610442906129f3565b6111a633898960405160200161118a9392919061240d565b60405160208183030381529060405280519060200120876118ea565b6111c25760405162461bcd60e51b8152600401610442906125a2565b6111cd883389611a08565b604051879033908a907f88f5b556c89013162a8332d08829b74a0e221338f39dfb3533a83e85f5dd4cfb90600090a45050505050505050565b61120e6117d8565b6001600160a01b031661121f610fbd565b6001600160a01b0316146112455760405162461bcd60e51b81526004016104429061295d565b600c80546001600160a01b0319166001600160a01b0383169081179091556040517f6e7ec25e0f98e0a0b129bb8a531c231a8c714decf29d1c05f1f0dff17197017390600090a250565b6112976117d8565b6001600160a01b03166112a8610fbd565b6001600160a01b0316146112ce5760405162461bcd60e51b81526004016104429061295d565b60008251116112ef5760405162461bcd60e51b8152600401610442906127e4565b600654600554106113125760405162461bcd60e51b8152600401610442906128a3565b6005805490600061132283612d20565b90915550506040805180820182528381528215156020808301919091526005546000908152600782529290922081518051929391926113649284920190611ce6565b50602091909101516001909101805460ff191691151591909117905560405161138e90839061233a565b60405190819003812060055490917f3b91dd71316ee5ff2c0e081a8b6135ef0592f6ba203d12f635324347a2aff4f890600090a35050565b600d5481565b6000818152600f6020526040812054829082906113ea90600161190e565b600e546113f8908790611a72565b611412600e5460065461140b9190612c7f565b8590611a72565b61141c9190612c67565b6114269190612c67565b95945050505050565b6001600160a01b03918216600090815260016020908152604080832093909416825291909152205460ff1690565b60065481565b61146b6117d8565b6001600160a01b031661147c610fbd565b6001600160a01b0316146114a25760405162461bcd60e51b81526004016104429061295d565b600d8190556040517f7810bd47de260c3e9ee10061cf438099dd12256c79485f12f94dbccc981e806c906114d7908390612471565b60405180910390a150565b6001600160a01b0384166115085760405162461bcd60e51b81526004016104429061280c565b6115106117d8565b6001600160a01b0316856001600160a01b031614806115365750611536856103c16117d8565b6115525760405162461bcd60e51b8152600401610442906126da565b600061155c6117d8565b905061157c81878761156d88611a7e565b61157688611a7e565b8761099b565b6000848152602081815260408083206001600160a01b038a168452909152902054838110156115bd5760405162461bcd60e51b815260040161044290612913565b6115c78482612c9e565b6000868152602081815260408083206001600160a01b038c81168552925280832093909355881681529081208054869290611603908490612c67565b92505081905550856001600160a01b0316876001600160a01b0316836001600160a01b03167fc3d58168c5ae7397731d063d5bbf3d657854427343f4c083240f7aacaa2d0f628888604051611659929190612c0b565b60405180910390a461166f828888888888611ad7565b50505050505050565b6116806117d8565b6001600160a01b0316611691610fbd565b6001600160a01b0316146116b75760405162461bcd60e51b81526004016104429061295d565b6001600160a01b0381166116dd5760405162461bcd60e51b815260040161044290612652565b6003546040516001600160a01b038084169216907f8be0079c531659141344cd1fd0a4f28419497f9722a3daafe3b4186f6b6457e090600090a3600380546001600160a01b0319166001600160a01b0392909216919091179055565b60086020908152600092835260408084209091529082529020546001600160a01b031681565b6001600160e01b031981166301ffc9a760e01b14919050565b60008281526009602090815260408083203380855281845282852080546001600160a01b03979097168087528487208890559786526008855283862096865295845291842080546001600160a01b03191690961790955582529290925255565b3390565b6117ee846001600160a01b0316611ba8565b1561099b5760405163bc197c8160e01b81526001600160a01b0385169063bc197c8190611827908990899088908890889060040161236a565b602060405180830381600087803b15801561184157600080fd5b505af1925050508015611871575060408051601f3d908101601f1916820190925261186e91810190612126565b60015b6118ba5761187d612d6d565b8061188857506118a2565b8060405162461bcd60e51b81526004016104429190612498565b60405162461bcd60e51b815260040161044290612506565b6001600160e01b0319811663bc197c8160e01b1461166f5760405162461bcd60e51b81526004016104429061255a565b60006118f68383611bae565b600b546001600160a01b039182169116149392505050565b600061191a8284612c67565b9392505050565b6001600160a01b0384166119475760405162461bcd60e51b815260040161044290612b83565b60006119516117d8565b90506119638160008761156d88611a7e565b6000848152602081815260408083206001600160a01b038916845290915281208054859290611993908490612c67565b92505081905550846001600160a01b031660006001600160a01b0316826001600160a01b03167fc3d58168c5ae7397731d063d5bbf3d657854427343f4c083240f7aacaa2d0f6287876040516119ea929190612c0b565b60405180910390a4611a0181600087878787611ad7565b5050505050565b60008381526009602090815260408083206001600160a01b03861680855290835281842085905586845260088352818420858552835281842080546001600160a01b0319169091179055858352600a9091528120805491611a6883612d20565b9190505550505050565b600061191a8284612c7f565b60408051600180825281830190925260609160009190602080830190803683370190505090508281600081518110611ac657634e487b7160e01b600052603260045260246000fd5b602090810291909101015292915050565b611ae9846001600160a01b0316611ba8565b1561099b5760405163f23a6e6160e01b81526001600160a01b0385169063f23a6e6190611b2290899089908890889088906004016123c8565b602060405180830381600087803b158015611b3c57600080fd5b505af1925050508015611b6c575060408051601f3d908101601f19168201909252611b6991810190612126565b60015b611b785761187d612d6d565b6001600160e01b0319811663f23a6e6160e01b1461166f5760405162461bcd60e51b81526004016104429061255a565b3b151590565b60008151604114611bd15760405162461bcd60e51b8152600401610442906125d0565b60208201516040830151606084015160001a611bef86828585611bf9565b9695505050505050565b60007f7fffffffffffffffffffffffffffffff5d576e7357a4501ddfe92f46681b20a0821115611c3b5760405162461bcd60e51b815260040161044290612749565b8360ff16601b1480611c5057508360ff16601c145b611c6c5760405162461bcd60e51b8152600401610442906128d1565b600060018686868660405160008152602001604052604051611c91949392919061247a565b6020604051602081039080840390855afa158015611cb3573d6000803e3d6000fd5b5050604051601f1901519150506001600160a01b0381166114265760405162461bcd60e51b8152600401610442906124cf565b828054611cf290612ce5565b90600052602060002090601f016020900481019282611d145760008555611d5a565b82601f10611d2d57805160ff1916838001178555611d5a565b82800160010185558215611d5a579182015b82811115611d5a578251825591602001919060010190611d3f565b50611d66929150611d6a565b5090565b5b80821115611d665760008155600101611d6b565b600067ffffffffffffffff831115611d9957611d99612d51565b611dac601f8401601f1916602001612c19565b9050828152838383011115611dc057600080fd5b828260208301376000602084830101529392505050565b80356001600160a01b03811681146104b457600080fd5b600082601f830112611dfe578081fd5b81356020611e13611e0e83612c43565b612c19565b8281528181019085830183850287018401881015611e2f578586fd5b855b85811015611e5457611e4282611dd7565b84529284019290840190600101611e31565b5090979650505050505050565b600082601f830112611e71578081fd5b81356020611e81611e0e83612c43565b8281528181019085830183850287018401881015611e9d578586fd5b855b85811015611e5457813584529284019290840190600101611e9f565b803580151581146104b457600080fd5b600082601f830112611edb578081fd5b61191a83833560208501611d7f565b600060208284031215611efb578081fd5b61191a82611dd7565b60008060408385031215611f16578081fd5b611f1f83611dd7565b9150611f2d60208401611dd7565b90509250929050565b600080600080600060a08688031215611f4d578081fd5b611f5686611dd7565b9450611f6460208701611dd7565b9350604086013567ffffffffffffffff80821115611f80578283fd5b611f8c89838a01611e61565b94506060880135915080821115611fa1578283fd5b611fad89838a01611e61565b93506080880135915080821115611fc2578283fd5b50611fcf88828901611ecb565b9150509295509295909350565b600080600080600060a08688031215611ff3578081fd5b611ffc86611dd7565b945061200a60208701611dd7565b93506040860135925060608601359150608086013567ffffffffffffffff811115612033578182fd5b611fcf88828901611ecb565b60008060408385031215612051578182fd5b61205a83611dd7565b9150611f2d60208401611ebb565b6000806040838503121561207a578182fd5b61208383611dd7565b946020939093013593505050565b600080604083850312156120a3578182fd5b823567ffffffffffffffff808211156120ba578384fd5b6120c686838701611dee565b935060208501359150808211156120db578283fd5b506120e885828601611e61565b9150509250929050565b600060208284031215612103578081fd5b5035919050565b60006020828403121561211b578081fd5b813561191a81612e12565b600060208284031215612137578081fd5b815161191a81612e12565b60008060408385031215612154578182fd5b823567ffffffffffffffff81111561216a578283fd5b8301601f8101851361217a578283fd5b61218985823560208401611d7f565b925050611f2d60208401611ebb565b600080604083850312156121aa578182fd5b82359150611f2d60208401611dd7565b600080604083850312156121cc578182fd5b50508035926020909101359150565b6000806000606084860312156121ef578081fd5b8335925060208401359150604084013567ffffffffffffffff811115612213578182fd5b61221f86828701611ecb565b9150509250925092565b600080600080600080600060e0888a031215612243578485fd5b87359650602088013595506040880135945060608801359350608088013567ffffffffffffffff80821115612276578384fd5b6122828b838c01611dee565b945060a08a0135915080821115612297578384fd5b6122a38b838c01611e61565b935060c08a01359150808211156122b8578283fd5b506122c58a828b01611ecb565b91505092959891949750929550565b6000815180845260208085019450808401835b83811015612303578151875295820195908201906001016122e7565b509495945050505050565b60008151808452612326816020860160208601612cb5565b601f01601f19169290920160200192915050565b6000825161234c818460208701612cb5565b9190910192915050565b6001600160a01b0391909116815260200190565b6001600160a01b0386811682528516602082015260a060408201819052600090612396908301866122d4565b82810360608401526123a881866122d4565b905082810360808401526123bc818561230e565b98975050505050505050565b6001600160a01b03868116825285166020820152604081018490526060810183905260a0608082018190526000906124029083018461230e565b979650505050505050565b6001600160a01b039390931683526020830191909152604082015260600190565b60006020825261191a60208301846122d4565b60006040825261245460408301856122d4565b828103602084015261142681856122d4565b901515815260200190565b90815260200190565b93845260ff9290921660208401526040830152606082015260800190565b60006020825261191a602083018461230e565b6000604082526124be604083018561230e565b905082151560208301529392505050565b60208082526018908201527f45434453413a20696e76616c6964207369676e61747572650000000000000000604082015260600190565b60208082526034908201527f455243313135353a207472616e7366657220746f206e6f6e20455243313135356040820152732932b1b2b4bb32b91034b6b83632b6b2b73a32b960611b606082015260800190565b60208082526028908201527f455243313135353a204552433131353552656365697665722072656a656374656040820152676420746f6b656e7360c01b606082015260800190565b6020808252601490820152734e6f74207369676e6564206279206f7261636c6560601b604082015260600190565b6020808252601f908201527f45434453413a20696e76616c6964207369676e6174757265206c656e67746800604082015260600190565b6020808252602b908201527f455243313135353a2062616c616e636520717565727920666f7220746865207a60408201526a65726f206164647265737360a81b606082015260800190565b60208082526026908201527f4f776e61626c653a206e6577206f776e657220697320746865207a65726f206160408201526564647265737360d01b606082015260800190565b60208082526022908201527f446f6e6174696f6e7320646f206e6f74206d61746368207769746820646f6e65604082015261657360f01b606082015260800190565b60208082526029908201527f455243313135353a2063616c6c6572206973206e6f74206f776e6572206e6f7260408201526808185c1c1c9bdd995960ba1b606082015260800190565b6020808252600c908201526b4e756c6c206164647265737360a01b604082015260600190565b60208082526022908201527f45434453413a20696e76616c6964207369676e6174757265202773272076616c604082015261756560f01b606082015260800190565b6020808252600f908201526e0556e737570706f727465642061707608c1b604082015260600190565b6020808252601690820152754461746120666f756e6420666f72206164647265737360501b604082015260600190565b6020808252600e908201526d456d707479206e69636b6e616d6560901b604082015260600190565b60208082526025908201527f455243313135353a207472616e7366657220746f20746865207a65726f206164604082015264647265737360d81b606082015260800190565b60208082526032908201527f455243313135353a207472616e736665722063616c6c6572206973206e6f74206040820152711bdddb995c881b9bdc88185c1c1c9bdd995960721b606082015260800190565b60208082526014908201527313995dc8185c1c1cc81b9bdd08185b1b1bddd95960621b604082015260600190565b60208082526022908201527f45434453413a20696e76616c6964207369676e6174757265202776272076616c604082015261756560f01b606082015260800190565b6020808252602a908201527f455243313135353a20696e73756666696369656e742062616c616e636520666f60408201526939103a3930b739b332b960b11b606082015260800190565b6020808252818101527f4f776e61626c653a2063616c6c6572206973206e6f7420746865206f776e6572604082015260600190565b60208082526017908201527f446f6e6174696f6e20746f203078302061646472657373000000000000000000604082015260600190565b60208082526010908201526f125b9d985b1a59081d1bdad95b88125160821b604082015260600190565b60208082526011908201527011185d1848199bdd5b9908199bdc881a59607a1b604082015260600190565b6020808252601d908201527f44617461206e6f7420666f756e6420666f72206d73672e73656e646572000000604082015260600190565b6020808252601290820152711259195b9d1a5d1e481b9bdd08199bdd5b9960721b604082015260600190565b60208082526029908201527f455243313135353a2073657474696e6720617070726f76616c20737461747573604082015268103337b91039b2b63360b91b606082015260800190565b60208082526029908201527f455243313135353a206163636f756e747320616e6420696473206c656e677468604082015268040dad2e6dac2e8c6d60bb1b606082015260800190565b60208082526028908201527f455243313135353a2069647320616e6420616d6f756e7473206c656e677468206040820152670dad2e6dac2e8c6d60c31b606082015260800190565b6020808252600e908201526d496e76616c696420737570706c7960901b604082015260600190565b60208082526021908201527f455243313135353a206d696e7420746f20746865207a65726f206164647265736040820152607360f81b606082015260800190565b60208082526027908201527f446f6e6174696f6e732063616e206e6f74206265206c6172676572207468616e60408201526620737570706c7960c81b606082015260800190565b918252602082015260400190565b60405181810167ffffffffffffffff81118282101715612c3b57612c3b612d51565b604052919050565b600067ffffffffffffffff821115612c5d57612c5d612d51565b5060209081020190565b60008219821115612c7a57612c7a612d3b565b500190565b6000816000190483118215151615612c9957612c99612d3b565b500290565b600082821015612cb057612cb0612d3b565b500390565b60005b83811015612cd0578181015183820152602001612cb8565b83811115612cdf576000848401525b50505050565b600281046001821680612cf957607f821691505b60208210811415612d1a57634e487b7160e01b600052602260045260246000fd5b50919050565b6000600019821415612d3457612d34612d3b565b5060010190565b634e487b7160e01b600052601160045260246000fd5b634e487b7160e01b600052604160045260246000fd5b60e01c90565b600060443d1015612d7d57610fca565b600481823e6308c379a0612d918251612d67565b14612d9b57610fca565b6040513d600319016004823e80513d67ffffffffffffffff8160248401118184111715612dcb5750505050610fca565b82840192508251915080821115612de55750505050610fca565b503d83016020828401011115612dfd57505050610fca565b601f01601f1916810160200160405291505090565b6001600160e01b031981168114612e2857600080fd5b5056fea264697066735822122040c09022ccc8a11459d46cef23e2a9a7ca01ce7924078ea46beb6aa42d1c746264736f6c63430008000033",
  "linkReferences": {},
  "deployedLinkReferences": {}
}